:020000040800F2
:10000000289C0220C1010008FB1C00089512000872
:10001000F91C000881040008AF4E00080000000031
:100020000000000000000000000000007B3000081D
:10003000870C0008000000008D1D0008AB30000890
:10004000DB010008DB010008DB010008DB01000820
:10005000DB010008DB010008DB010008890C000857
:10006000DB010008DB010008DB010008DB01000800
:10007000DB010008DB010008DB010008DB010008F0
:10008000DB010008DB010008DB010008DB010008E0
:10009000DB010008DB010008DB010008790D000826
:1000A000DB010008DB010008DB010008DB010008C0
:1000B000DB010008DB010008DB010008BD120008BD
:1000C00099120008DB010008DB010008DB010008D1
:1000D000DB010008DB010008993300083534000813
:1000E000DB010008DB010008DB010008DB01000880
:1000F000DB010008DB010008DB010008DB01000870
:10010000DB010008B1200008B5310008DB01000860
:10011000A1320008DB010008DB010008DB01000858
:10012000DB0100088D080008DB0100082909000830
:10013000DB010008DB010008DB010008DB0100082F
:10014000DB010008DB010008DB010008811D00085D
:10015000DB010008DB010008DB010008DB0100080F
:10016000DB010008DB010008DB010008DB010008FF
:10017000DB010008DB01000809080008DB010008BA
:10018000DB010008DB010008DB010008DB010008DF
:10019000DB010008DB010008DB010008DB010008CF
:1001A000DB010008DB010008DB010008DFF80CD0F0
:1001B00000F0C8F800480047498C0008289C02203D
:1001C0000648804706480047FEE7FEE7FEE7FEE7F1
:1001D000FEE7FEE7FEE7FEE7FEE7FEE7B1300008D8
:1001E000AD01000840EA01039B0703D009E008C9FC
:1001F000121F08C0042AFAD203E011F8013B00F8EC
:10020000013B521EF9D27047D2B201E000F8012B37
:10021000491EFBD270470022F6E710B513460A4686
:1002200004461946FFF7F0FF204610BD10B50446FE
:1002300004E00B7800F8013B03B1491C521EF8D2D0
:10024000204610BD421C10F8011B0029FBD1801A6A
:10025000704710B5044600E0401C0378002BFBD12A
:1002600000E0401C521E04D311F8013B0370002B28
:10027000F7D100210170204610BD034611F8012B73
:1002800000F8012B002AF9D11846704770B50646D0
:1002900004F0C2FE046805460A220021304600F040
:1002A00018F82C6070BD30B50B46014600202022A6
:1002B000012409E021FA02F59D4205D303FA02F573
:1002C000491B04FA02F52844151EA2F10102F1DCD3
:1002D00030BD2DE9F04791460F4680460446002682
:1002E00014F8015B2DB100F03FF80068405DC007D5
:1002F000F6D12B2D02D02D2D18D0641E4A4639463A
:10030000204600F035F827B13968A14201D1C7F87D
:10031000008071054FF002040BD54042002803DD38
:1003200004F07AFE0460A007BDE8F08746F480661A
:10033000E4E70028F8DA04F06FFE04606FF0004094
:10034000F2E70000064C074D06E0E06840F00103CC
:1003500094E8070098471034AC42F6D3FFF72AFF21
:1003600070BF000890BF0008004870473CBF0008FD
:100370002DE9F05F82460078002715468B460AF18A
:100380000104B946302801D09DB113E014F8010BE7
:100390000127782803D0582801D045B10AE00DB1D3
:1003A000102D07D10027102514F8010B02E00825B5
:1003B00000E00A250026B0460EE005FB080005FB1C
:1003C00006F1012701EB10461FFA80F8B6F5803FD1
:1003D00000D3B94614F8010B294600F018F800289C
:1003E000EBDABBF1000F05D00FB1641E00E05446FC
:1003F000CBF80040B9F1000F06D004F00DFE022149
:100400000160C81EBDE8F09F48EA0640FAE73A28B6
:1004100000D2303820F02002412A01D3A2F1370067
:10042000884201D34FF0FF30704770B58C1810F838
:10043000015B15F0070301D110F8013B2A1106D129
:1004400010F8012B03E010F8016B01F8016B5B1E43
:10045000F9D12B0705D40023521E0DD401F8013B1E
:10046000FAE710F8013BCB1A921C03E013F8015B8A
:1004700001F8015B521EF9D5A142D8D3002070BD0E
:10048000FEE7000070B5464905460024086810F0F4
:10049000450F03D1086810F0450FFBD010F0040F92
:1004A00005D00324042001F09BFD204670BD10F010
:1004B000010F05D00124204601F092FD204670BDB9
:1004C00001F0CAFDA84234D140F2FF5001F088FD8E
:1004D000002001F0E3FD334908425ED010F0004FE8
:1004E0001CBF1C2070BD10F0804F1CBF092070BDC8
:1004F00010F0005F1CBF0A2070BD10F0805F1CBFB1
:100500000B2070BD10F0006F1CBF0C2070BD10F0F0
:10051000806F1CBF0D2070BD10F0807F1CBF0E20AF
:1005200070BD10F4000F1CBF0F2070BD10F4800FC1
:1005300001D0102070BD10F4001F1CBF112070BD31
:1005400010F4801F1CBF122070BD10F4002F1CBFC0
:10055000132070BD10F4802F1CBF142070BD10F448
:10056000003F1CBF152070BD10F4803F1CBF16203B
:1005700070BD10F4004F1CBF172070BD10F4804FE9
:100580001CBF182070BD10F4005F1CBF192070BD87
:1005900010F0080F1CBF1A2070BD204670BD00006F
:1005A000342C014008E0FFFD0A4611F0800F01F0F5
:1005B0007F0310B503EB830100EBC10114BF01F50C
:1005C0008E7101F55D710B70D2094A7004F022FA48
:1005D000002010BD10B50A4611F0800F01F07F0316
:1005E00014BF03EB830102EB820100EBC10114BFD6
:1005F00001F58E7101F55D714FF0000C81F802C0BC
:100600000B70D2094A7004F0EEF9002010BD70B5ED
:100610008C4611F0800F01F07F0404EB840100EBA5
:10062000C10114BF01F58E7101F55D710C705FEAB7
:10063000DC1C81F801C08A60CB7018BFCC80022B13
:1006400004BF00220A7104F09FF9002070BD01F080
:100650007F0C0CEB8C0110B500EBC101C1F88833A5
:10066000C1F880230023C1F88C3381F8753381F8F9
:1006700074C3C37801F55D71012B08BF0A611CF0DA
:10068000FF0F03D004F000FA002010BD04F0FCF8C6
:10069000FAE70069002261F30A1201681143016060
:1006A000704710B50A4611F0800F01F07F0314BFA8
:1006B00003EB830102EB820100EBC10114BF01F5E2
:1006C0008E7101F55D714FF0010C81F802C00B7065
:1006D000D2094A7004F0BEF9002010BD11F07F0C61
:1006E00010B50CEB8C0100EBC1014FF0010481F857
:1006F0001D4181F81CC1C1F82821C1F82C2101F548
:100700008E714FF00002C1E9053203D004F0BCF94C
:10071000002010BD04F0B8F8FAE710B5044604F064
:10072000F5FA4FF0010C84F812C1002184F814117D
:10073000627840230846002A13D900EB800204EBBC
:10074000C20282F81DC182F81C01A2F8220182F8BF
:100750001F11C2E94931C2F830116278401C82424F
:10076000EBD8002012F0FF0F13D000EB800204EB57
:10077000C20282F8751382F87403A2F87A0382F831
:100780007713C2E9DF31C2F888136278401C8242D5
:10079000EBD8204604F04EF8204603F0CDFE0021B1
:1007A000204604F043FB204603F054FF2046BDE8FA
:1007B000104004F02DBA000004490028086814BF56
:1007C00040F0010020F00100086070470000055073
:1007D00001494861704700000000055004490028A5
:1007E000086814BF40F4804020F4804008607047DF
:1007F00000000550034A0146002012690A4218BF52
:10080000012070470000055010B50120FFF7F2FFEE
:10081000002808BF10BD0120BDE81040FFF7D8BF79
:10082000044A0029D16811BF0843C04380B2084080
:10083000D060704700000550134910B40A6822F0D8
:10084000010222F480420A600A680388B0F802C0FC
:10085000C48843EA0C03B0F804C022F4F9724CEAED
:10086000040C43EA0C03B0F808C022F4606243EAC7
:100870000C03B0F80AC0808943EA0C031843104304
:10088000086010BC704700000000055070B5214C96
:10089000214D2146284600F065F968B321462846D7
:1008A00000F05AF81D4C2079401C2071A069401CB2
:1008B000A0611B4890ED1B0AB5EEC00AF1EE10FADC
:1008C00016D0A069042813D30021284600F05AF856
:1008D0000020FFF783FF0020FFF76EFF284600F09F
:1008E00039F96071E078A0716078E071A0782072C9
:1008F000BDE8704006F006BB0A4C2846214600F0D1
:1009000031F9002808BF70BD21462846BDE8704077
:1009100000F022B800880010286402400400002083
:100920000CFE01200044001002F00AB9064A904271
:1009300034BF0648064811F0005F064A01EA02018A
:1009400014BFC160816070471064024000600240C3
:10095000006402407D0F7D0F064A904234BF064876
:10096000064811F0005F064A01EA020114BFC160A7
:1009700081607047106402400060024000640240E1
:100980007D0F7D0F0029016814BF41F0010121F0A6
:1009900001010160704700002DE9F003016821F0BA
:1009A000010101600021016041608160C16001615D
:1009B00021214161434A3D244349904202BF8C605A
:1009C000BDE8F0037047414A4FF47465904202BF9E
:1009D0008D60BDE8F00370473D4A4FF474189042B3
:1009E00002BFC1F80880BDE8F0037047394A4FF0F4
:1009F0007466904202BF8E60BDE8F0037047364BCC
:100A0000364A984202BFCA60BDE8F0037047DFF87B
:100A1000D0C0344B604502BFCB60BDE8F0037047E7
:100A2000314FDFF8C8C0B84202BFC1F80CC0BDE802
:100A3000F0037047DFF8B8904FF03D57484502BFCC
:100A4000CF60BDE8F0037047DFF8A8902A49484519
:100A500002BF0C60BDE8F0037047284CA04202BF03
:100A60000D60BDE8F0037047254CA04202BFC1F8FD
:100A70000080BDE8F0037047224CA04202BF0E6028
:100A8000BDE8F0037047204C2049A04202BF0A6035
:100A9000BDE8F00370471E4A904202BF0B60BDE8FC
:100AA000F00370471B4A904202BFC1F800C0BDE886
:100AB000F0037047184A904208BF0F60BDE8F0038A
:100AC0007047000010600240006002402860024051
:100AD0004060024058600240706002403D000020CB
:100AE00088600240400F0020A060024000003D20CE
:100AF000B86002401064024008640240286402406A
:100B00004064024058640240706402400C64024039
:100B100088640240A0640240B86402400029016871
:100B200014BF41F4802121F4802101607047002A24
:100B3000026814BF42F4002222F400220260016124
:100B400070470029016814BF41F0200121F0200105
:100B50000160704701460020096811F4002F18BF9A
:100B600001207047124A0023904234BF114A124AB2
:100B7000DFF848C011EA0C0F04BF406900F08000A4
:100B800006D04FF01E0C00680CEAD12C00EA0C00D5
:100B900011F0005F14BF52681268DFF824C002EA47
:100BA0000C020A421CBF00280123184670470000AF
:100BB0001064024000600240006402403C0F3C0FA1
:100BC0007D0F7D0F11F0800F01F01E0306D072B172
:100BD000D0F814C04CF0800CC0F814C0802908BFB5
:100BE0007047002A1CBF0168194307D008E042691A
:100BF00022F080024261802908BF70470168994352
:100C00000160704710B402681B4BD1F80CC01A4049
:100C10000B6843EA0C03D1E905C44CEA040C43EA2F
:100C20000C03D1F81CC043EA0C03D1F820C043EAFE
:100C30000C03D1F824C043EA0C03D1F828C043EADE
:100C40000C03D1F834C043EA0C03D1F838C043EAAE
:100C50000C031A4302604269D1E90B3C22F00702FF
:100C600043EA0C031A4342610A6942604A6882609F
:100C70008968C16010BC70473F801CF0002A14BF17
:100C80000161C1607047704730B5354C2DED028B66
:100C900081B0A06C00285BD032480068009000282A
:100CA00056DD2078002853D10098E16C401A322894
:100CB00004DD002060650098206547E0606D401C01
:100CC0006065082842DB94ED140ADFED270AB8EED0
:100CD000C00A20EE200ADFED250A20EE200AF6EEFB
:100CE000000A20EE208A84ED168AA068606006F073
:100CF000F7FEA060A068E061A0686168DFED1C0AF3
:100D0000401A00EE100AB8EE400A80EE201A9FED5D
:100D1000190A28EE000ABDEEC00A10EE100A84ED92
:100D2000031AE065B0EE480A07F06EFE84ED0E0A85
:100D30000125A561B7EE000A84ED0F0A0020C4E981
:100D40001A00B0EE480A0AF001FD25700098E06430
:100D500001B00220BDEC028BBDE8304000F094B839
:100D6000E0000020240C0040BD3786350000AA4377
:100D70000024744900007A44F8B53C4C206C0028EB
:100D80006ED0D4E91A3000210A46C91A72EB00006D
:100D900066DA3748406A00903648006910F4807F70
:100DA0001CBF009860645BD1606CDFED330A4FF0CC
:100DB000FF3600284DDD0099081A009003D54EF645
:100DC00060210844009000EE100A9FED2C1A41F2B9
:100DD0007431B8EEC00A20EE010AB6EE001A20EE19
:100DE000010ABDEEC00A10EE105AA5F114008842A7
:100DF00088BFC4ED0F0A2AD8A068606006F070FEB4
:100E0000A060A068E061A0686168DFED1D0A401A7B
:100E100000EE100AB8EE400A80EE201A84ED031AA4
:100E2000E565E06D9FED171A00EE100AF8EEC00AB6
:100E300080EE810A07F0E8FD84ED0E0A0120A06132
:100E4000B7EE000A84ED0F0A0020C4E91A006664B8
:100E500006E0C4ED0F0A4FF0FF316664C4E91A11D1
:100E6000BDE8F8404FF4807000F00EB8E0000020BC
:100E70000010004000000240000000009A99594014
:100E80000024744900007A4401490860704700005A
:100E9000143C0140837921490268002B34D00B684F
:100EA00023EA02020A60091D0A6803689A430A607D
:100EB000017901F1804101F59E310A6803681A4306
:100EC0000A60174B19680268914319601A1D11686E
:100ED000D0F800C021EA0C0111604179102908D036
:100EE00001F1804101F59E310A68006810430860F5
:100EF00070471968D0F800C041EA0C011960116808
:100F00000068084310607047007900F1804000F5E8
:100F10009E3001689143016070470000003C014031
:100F2000083C01400248016841F0004101607047FF
:100F3000103C0240034900200978AA2918BF01206B
:100F400070470000153C02400348017841F002015F
:100F5000017000F03FB80000143C024002480168F4
:100F600041F0010101607047143C024000B50346A6
:100F700000F030F8082804BF0148037000BD0000ED
:100F8000153C02400548006810F0010F08BF70478B
:100F9000034904480160044901607047143C024061
:100FA0003B2A1908083C02407F6E5D4C05480068EA
:100FB00010F0004F08BF704703490448016004491E
:100FC00001607047103C024023016745043C024029
:100FD000AB89EFCD81B008208DF800000146204894
:100FE000026812F4803F18BF012110D1026812F08C
:100FF000100F18BF05210AD1026812F0EF0F18BFB9
:10100000062104D1026812F0020F18BF07218DF8E3
:1010100000109DF8001001291DD10268082112F46A
:10102000803F18BF012110D1026812F0100F18BFC5
:1010300005210AD1026812F0EF0F18BF062104D172
:10104000026812F0020F18BF07218DF800109DF8FA
:1010500000100129E1D09DF8000001B070470000A8
:101060000C3C02402DE9F04782B00024514D009421
:101070004FF0080A019410204FF04009C5F800A075
:10108000C5E901098701C5E9034788462646284680
:1010900001F042F81020FFF7F5F900281CBF02B05C
:1010A000BDE8F08744480089000428603720C5E97E
:1010B00001094048C5E9036701F02EF83720FFF722
:1010C000E1F900281CBF02B0BDE8F0874FF0FF3106
:1010D0003A48C0E9001A302181600221C0E90316B4
:1010E0000121416100F094FF3320C5F80890C5E963
:1010F0000060C5E903672F4801F00EF83320FFF7C1
:10110000C1F907001CBF02B0BDE8F0872C4E306863
:1011100040F22A65284208BFE9460CD14FF400107E
:1011200000F0A0FF20B100F0F1FF49F82400641C9A
:1011300030682842F2D0082000F094FF30B1082037
:1011400000F04EFF02B00420BDE8F087022000F05E
:1011500089FF30B1022000F043FF02B00220BDE859
:10116000F087202000F07EFF30B1202000F038FF13
:1011700002B00620BDE8F0874FF4007000F072FF67
:1011800038B14FF4007000F02BFF02B00720BDE82B
:10119000F08740F2FF5000F023FF009800BAC8F833
:1011A0000400019800BAC8F8000002B03846BDE853
:1011B000F0870000F8950220000300200C96022022
:1011C000342C01402DE9F001002201255FF00306D7
:1011D000D1F800C005FA02F30CEA030C9C4533D1A8
:1011E00007684FEA420C06FA0CF4A74307600F7930
:1011F000D0F8008007FA0CF747EA080707600F7974
:10120000012F18BF022F14D18768A74387604F7939
:10121000D0F8088007FA0CF747EA080787604768A4
:1012200027EA0303436043688F799740BFB23B438B
:101230004360C368A343C360CB7903FA0CF3D0F8CF
:101240000CC043EA0C03C360521C102AC0D3BDE893
:10125000F00170474B07DB0E9A40C90800EB810094
:10126000016A4FF00F0C0CFA03F399430162016A13
:101270001143016270470246002012690A4218BFFA
:101280000120704741837047018370474269514094
:1012900041617047FEE7000010B51421054800F0D9
:1012A00083F910F47F4F08BF10BD03480188C9B20D
:1012B000018010BD00540040145400402DE9F84353
:1012C0004A4D284600F0FFF8494A4B4E811A494FD3
:1012D000341F904239D011DC102864D0B0F5806FF3
:1012E00004BF2088C0B216D04FF00008B0F1021F32
:1012F00013D04038B0F5003F14D059E0022904BFA4
:101300002088308854D004291FD0402950D13B4830
:1013100000880090802020804AE02088308887F86C
:101320000B8045E0284600F045F97870F97A491CB1
:10133000F9727872162886BF1638B87287F80A8054
:1013400087F8068087F8078032E0787A16280FD26F
:10135000B97801EB410202EBC101294A02EB4101DC
:10136000095C284600F031F9787A401C78720FE069
:10137000F8782449C0EBC00001EB8000B97A415CE9
:10138000284600F022F9B87A1C283CBF401CB872ED
:10139000797A0120152928BFB871B97A1B2924BF91
:1013A000F871387204E02088288840F00100288015
:1013B000208810F0020F06D0208830880090208806
:1013C00010F0020FF8D1208810F0100F08BFBDE810
:1013D000F88320880090288840F001002880208829
:1013E00010F0100FF5D1BDE8F88300000054004064
:1013F00080000600500000201854004010540040A7
:1014000074F70120A0F701200029018814BF41F4DE
:10141000806121F4806101807047838A0022008B03
:1014200043EA004020F07F4031EA000008BF01227B
:10143000104670470029018814BF41F0010121F0D6
:1014400001010180704710B5A0F18041B1F5A841BC
:1014500011D0B1F5806119D0B1F5806118BF10BD10
:101460000121C80500F0B8FCBDE8104000214FF490
:10147000000000F0B1BC0121480500F0ADFCBDE862
:10148000104000214FF4001000F0A6BC0121880597
:1014900000F0A2FCBDE8104000214FF4800000F0F5
:1014A0009BBC0029018814BF41F4807121F4807134
:1014B000018070470029018814BF41F4007121F4B4
:1014C000007101807047818A008B41EA004020F062
:1014D0007F407047002A828814BF114322EA01012D
:1014E0008180704770B50446808884B00D4620F036
:1014F0003F06684600F09AFC29490298B0FBF1F1DA
:1015000089B246EA0102A280228822F001022280EA
:10151000244B2A689A421DD85200B0FBF2F080B2E8
:10152000042838BF0420491C2184A083208840F06F
:10153000010020802088A9886A8920F00A0020F410
:101540008060114308432080A889298908432081AD
:1015500004B070BDEB88A3F53F4CBCF1FF0C19D073
:1015600002EBC20303EB0212B0FBF2F080B240F4D4
:1015700080400205120D08BF40F0010040F4004019
:101580004FF4967251434FF47A72B1FBF2F1491C59
:101590002184CAE702EB4202B0FBF2F080B2E8E736
:1015A00040420F00A086010081B0084400900088EE
:1015B00001B07047008AC0B27047002A14BF41F0E2
:1015C000010101F0FE01018270470182704700298C
:1015D000018814BF41F40041C1F30E01018070473E
:1015E000002901880CBF41F0800121F080010180B9
:1015F0007047000010B582B00121042000F0C8FB44
:101600004FF44040009001208DF8040000218DF837
:10161000061003218DF80510094C8DF80700694666
:101620002046FFF7CFFD4FF400412046FFF72CFE88
:101630004FF480412046FFF727FE02B010BD0000A6
:10164000000802402DE9F04782B000248DF80440E4
:101650004FF003094E4E82464FF480488DF80590B6
:101660002746CDF800808DF8074069463046FFF7E1
:10167000A9FD00254FF400413046FFF703FE02228A
:1016800000200221491C0C29FCDB401C9042F8DBA5
:101690004FF400413046FFF7F7FD6006040E4FF4AB
:1016A00080413046FFF7E7FD00281CBF601CC4B234
:1016B0000220401C0C28FCDB681CC5B2082DD9D3C5
:1016C0000125BAF1000F4FF40041304633D0FFF747
:1016D000D9FD8DF804508DF806708DF80590CDF881
:1016E00000808DF8075069463046FFF76BFDA9036F
:1016F0003046FFF7C7FD022200210220401C0C28C3
:10170000FCDB491C9142F8DB4FF400413046FFF707
:10171000BBFD022200210220401C0C28FCDB491CDE
:101720009142F8DB4FF400413046FFF7ABFD02B0C9
:101730002046BDE8F087FFF7A5FD8DF804508DF831
:1017400006708DF80590CDF800808DF80750694639
:101750003046FFF737FD4FF480413046FFF794FDE8
:10176000022200210220401C0C28FCDB491C914273
:10177000F8DB4FF400413046FFF786FD02220021DE
:101780000220401C0C28FCDB491C9142F8DBC9E715
:101790000008024070B582B005464FF480400090CA
:1017A00001208DF8040000218DF8061003218DF82A
:1017B0000510224E8DF8070069463046FFF702FDFE
:1017C0004FF400413046FFF75DFD0024E8094FF477
:1017D0008041304602D0FFF757FD01E0FFF752FD90
:1017E0006806050E022200200221491C0C29FCDBA0
:1017F000401C9042F8DB4FF400413046FFF744FDB7
:10180000022200200221491C0C29FCDB401C9042D2
:10181000F8DB4FF400413046FFF734FD0222002090
:101820000221491C0C29FCDB401C9042F8DB601CA7
:10183000C4B2082CCAD302B070BD00000008024038
:1018400010B582B04FF48040009001208DF8040064
:1018500000218DF8061003218DF80510174C8DF826
:10186000070069462046FFF7ADFC4FF48041204653
:10187000FFF70AFD4FF400412046FFF705FD042362
:1018800000220221491C0C29FCDB521C9A42F8DB85
:101890004FF480412046FFF7F5FC0423002202218B
:1018A000491C0C29FCDB521C9A42F8DB02B0204692
:1018B000BDE810404FF40041FFF7E4BC00080240CF
:1018C00010B582B04FF48040009001208DF80400E4
:1018D00000218DF8061003218DF80510174C8DF8A6
:1018E000070069462046FFF76DFC4FF40041204693
:1018F000FFF7C8FC4FF480412046FFF7C3FC0423E8
:1019000000220221491C0C29FCDB521C9A42F8DB04
:101910004FF400412046FFF7B7FC4FF480412046CA
:10192000FFF7B2FC042200210220401C0C28FCDB43
:10193000491C9142F8DB02B010BD000000080240D3
:101940002DE9F04182B000248DF804400327DFF830
:10195000E4804FF480468DF80570254600968DF89A
:10196000074069464046FFF72DFC31464046FFF7E9
:101970008BFC0121491C0C29FCDB4FF40041404643
:10198000FFF782FC0221491C0C29FCDB4FF480414B
:101990004046FFF770FC002842D0601CC4B2FA2C0D
:1019A00037D901208DF804008DF806508DF80570A8
:1019B0008DF80700009669464046FFF703FC4FF498
:1019C00000414046FFF75EFC4FF480414046FFF780
:1019D00059FC042300220221491C0C29FCDB521C67
:1019E0009A42F8DB4FF400414046FFF74DFC4FF4BC
:1019F00080414046FFF748FC042200210220401CA1
:101A00000C28FCDB491C9142F8DB02B00120BDE848
:101A1000F0814FF480414046FFF72DFC0028BCD1F7
:101A20004FF400414046FFF72DFC02B00020BDE816
:101A3000F08100000008024010B504460E4882B054
:101A4000012150F8240000F0A3F90C48002130F8DF
:101A50001400009001208DF804008DF806108DF818
:101A6000070002208DF805000548694650F824005B
:101A7000FFF7A8FB02B010BD60BE000858BE00080A
:101A8000800000200349044A31F8101052F8200069
:101A9000FFF7FABB58BE0008800000200349044A43
:101AA00031F8101052F82000FFF7ECBB58BE0008C8
:101AB000800000200349044A31F8101052F8200039
:101AC000FFF7E4BB58BE00088000002070B5FFF7A8
:101AD00091FD6B258024FFF7B3FED020FFF75AFE5F
:101AE000FFF72EFF48B92846FFF754FEFFF728FFFF
:101AF0002046FFF74FFEFFF723FFFFF7E1FE6420CC
:101B000004F03EFF6B250024FFF79AFED020FFF77C
:101B100041FEFFF715FF48B92846FFF73BFEFFF7E8
:101B20000FFF2046FFF736FEFFF70AFFFFF7C8FE5C
:101B300018211B2000F0C2F800211C2000F0BEF884
:101B400032204FF47A75B5FBF0F0401EC1B2192077
:101B500000F0B4F804211A2000F0B0F83826002470
:101B6000FFF76EFED020FFF715FEFFF7E9FE48B93C
:101B70003046FFF70FFEFFF7E3FE2046FFF70AFEB1
:101B8000FFF7DEFEFFF79CFE6A260024FFF758FEF3
:101B9000D020FFF7FFFDFFF7D3FE48B93046FFF72F
:101BA000F9FDFFF7CDFE2046FFF7F4FDFFF7C8FE75
:101BB000FFF786FE23260024FFF742FED020FFF722
:101BC000E9FDFFF7BDFE48B93046FFF7E3FDFFF73B
:101BD000B7FE2046FFF7DEFDFFF7B2FEFFF770FE0F
:101BE00037268024FFF72CFED020FFF7D3FDFFF728
:101BF000A7FE48B93046FFF7CDFDFFF7A1FE20460E
:101C0000FFF7C8FDFFF79CFEFFF75AFE7524FFF7AC
:101C100017FED020FFF7BEFDFFF792FE2046FFF72C
:101C2000B9FDFFF78DFEFFF70BFED120FFF7B2FDE8
:101C3000FFF786FE0020FFF705FD0446FFF740FE94
:101C4000682C1CBF012070BD6B260124FFF7F8FD36
:101C5000D020FFF79FFDFFF773FE48B93046FFF72E
:101C600099FDFFF76DFE2046FFF794FDFFF768FE34
:101C7000FFF726FE6C260024FFF7E2FDD020FFF7D9
:101C800089FDFFF75DFE48B93046FFF783FDFFF79A
:101C900057FE2046FFF77EFDFFF752FEFFF710FECE
:101CA0003220B5FBF0F0401EC1B2192000F006F85A
:101CB00004211A2000F002F8002070BD70B50C4617
:101CC0000546FFF7BDFDD020FFF764FDFFF738FEA6
:101CD00050B92846FFF75EFDFFF732FE2046FFF7BA
:101CE00059FDFFF72DFE18B1FFF7EAFD012070BD89
:101CF000FFF7E6FD002070BDFEE7704710B4C27824
:101D000001780F244FF0010C0AB3174A126801F151
:101D1000E02102F4E062C2F5E062C2F30722C2F100
:101D20000403D44042789A40837823401A43120136
:101D300081F80024007800F01F010CFA01F140093D
:101D4000800000F1E020C0F8001110BC704701F0E5
:101D50001F000CFA00F04909890001F1E021C1F8E7
:101D6000800110BC704700000CED00E0034940F01A
:101D7000FD7040F080600860704700000CED00E0EE
:101D8000014801F0C9BD0000F0F7012070470000D4
:101D9000044A0029116814BF084321EA00001060BA
:101DA0007047000030380240044A0029116814BF0F
:101DB000084321EA000010607047000034380240F8
:101DC000044A0029116814BF084321EA000010608A
:101DD0007047000040380240044A0029116814BFCF
:101DE000084321EA000010607047000020380240DC
:101DF000044A0029116814BF084321EA000010605A
:101E00007047000044380240044A0029116814BF9A
:101E1000084321EA000010607047000024380240A7
:101E20000149C8647047000000004742254A30B4A9
:101E30001168254B11F00C0106D0244C042908BF71
:101E4000046002D008291ED0036011680F2303EA42
:101E500011111F4B595CD0F800C02CFA01F1416000
:101E6000D2F800C0072404EA9C2C13F80CC021FA15
:101E70000CFCC0F808C0126804EA52329A5CD140E7
:101E8000C16030BC70471349D1F800C0CCF3805515
:101E9000D1F800C0002D0CF03F0C14BFB4FBFCF3D4
:101EA000B3FBFCF3D1F800C00968CCF3881C03FB3A
:101EB0000CF3C1F30141491C4900B3FBF1F101608E
:101EC000C3E70000083802400024F40000366E0129
:101ED0000C02002004380240034A1368084323F030
:101EE000EC63184310607047083802402DE9F04752
:101EF00082B00025824600952846019500F0CEF874
:101F000010F0007F1EBF0E2002B0BDE8F087DFF8A2
:101F1000C8806946B8F8080080B2FFF7A3F8002827
:101F20001CBF02B0BDE8F087372040272B4C3E0194
:101F300001994FF00609BAF1010F23D011F4803F47
:101F400045D0B8F80810A7600904C4E90010C4E936
:101F50000356204600F0E0F83720FEF793FA0028F9
:101F60001CBF02B0BDE8F087A760C4E90059C4E90E
:101F700003561A4800F0D0F80620FEF783FA02B0A4
:101F8000BDE8F08711F4802F21D0B8F80810A760C1
:101F90000904C4E90010C4E90356104800F0BCF875
:101FA0003720FEF76FFA00281CBF02B0BDE8F087AB
:101FB0000220A760C4E90009C4E90356074800F0FD
:101FC000ABF80620FEF75EFA02B0BDE8F08702B07B
:101FD0002520BDE8F087000000030020F8950220CE
:101FE0000149086070470000382C01400149086031
:101FF00070470000382C01400149C1F8A00070472B
:102000000080254201490860704700008C85254208
:102010000A4A01681160121D41681160111D0A68A9
:10202000D0E9023C43EA0C03D0E904C04CEA0000CA
:1020300022F0F7021843104308607047242C014037
:1020400010B50121C802FFF7DFFEBDE810400021F6
:102050004FF40060FFF7D8BE01480068C0B2704777
:10206000102C0140034A0146002012680A4218BFA2
:1020700001207047342C0140034A014600201268B9
:102080000A4218BF01207047342C01400248006802
:1020900000F0030070470000002C0140034981B0AC
:1020A00008440090006801B070470000142C014003
:1020B00000F05ABD044A0029116814BF084321EA00
:1020C00000001060704700003C2C01400E4910B425
:1020D0000A68037DD0F808C0C46843EA0C03D0F84E
:1020E00004C022F0FF024CEA040C43EA0C03D0F8CF
:1020F00000C0006943EA0C0322F4FC421843104379
:10210000086010BC70470000042C014001480068C2
:1021100070470000802C0140094A01681160121DBF
:102120001168D0E9013C43EA0C03D0E903C04CEA52
:1021300000006FF30A011843084310607047000065
:10214000082C01400149086070470000002C014044
:1021500070B501461A4800264068032812D00028AE
:102160001CBF0128022829D1B1F5805F0AD00024C4
:10217000144DB1F5006F07D00020FFF7B7FE060041
:1021800013D01BE0272070BD0120FFF7AFFE060033
:1021900014D12C752C604FF400606C60C5E90240CE
:1021A00008482C61FFF792FF08E02C752C606C60EA
:1021B000AC60EC6003482C61FFF788FF304670BDCF
:1021C00000030020E09502202DE9F003AA49AB4E60
:1021D000D1F8048080F856800989A0F8541031683D
:1021E0000A0E93090370C2F38303437002F00302E3
:1021F00082700A0CC2700A0A027141717468210E61
:102200000901C180C288C4F3074142EA1112C280A9
:1022100001F00F010172C4F30721CA094272C1F330
:1022200080128272C1F34012C272C1F300120273B3
:1022300000224273334601259F68B8F1000F4FEA30
:10224000176CC7F30743C7F3072918BFB8F1010F8D
:1022500003D0B8F1020F3CD055E08907090D0161A8
:10226000E1B2046944EA81010161016941EA9C111A
:102270000161CCF3C20101750CF0070141755909E8
:102280008175C3F38201C1759907490F0176037EF9
:10229000494643EAD1130376036990F818C00CF15C
:1022A000020C05FA0CF45B1CA3FB04C94FEAE478AA
:1022B00002FB049403FB0843047A05FA04F4ACFB24
:1022C000048903FB04930CFB02330465C0E9128309
:1022D00019E0A106890A0161016941EA0C21016145
:1022E0000169194301610369494613F1010C42F187
:1022F0000003DB0443EA5C334FEACC4CC0E912C371
:102300004FF400730365C1F3801343768906490EC9
:102310008176837EF9B243EAD113837601F07F019F
:10232000C176F368190E4FEAD11C80F81CC0C1F3C6
:10233000411C80F81DC0C1F3820C80F81EC08907C3
:10234000090FC17790F81FC0C3F307414CEA911CF5
:1023500080F81FC0C1F3401C80F820C080F8212005
:1023600001F0010180F82210C3F307214FEAD11CCC
:1023700080F823C0C1F3801C80F824C0C1F3401C46
:1023800080F825C0C1F3001C80F826C0C1F3810C81
:1023900080F827C001F0030180F82810C3F346013C
:1023A00080F8291080F82A50354B19684FEA116CD3
:1023B00080F82CC04FEA114C4FEA0C2CA0F82EC02C
:1023C000C48DC1F3072C44EA0C0CA0F82EC00906FA
:1023D00001635968046B4FEA116C44EA0C4CC0F875
:1023E00030C0046BC1F3074C44EA0C2CC0F830C079
:1023F000046BC1F3072C44EA0C0CC0F830C080F821
:10240000341099684FEA116C80F835C04FEA114CCE
:102410004FEA0C6CC0F838C0846BC1F3072C44EA57
:102420000C4CC0F838C0D0F838C0C9B24CEA012111
:102430008163D968D0F838C04CEA1163836390F89F
:102440003CC0C1F307434CEA131C80F83CC01B0797
:102450001B0DC387B0F83EC0C1F307234CEA03034A
:10246000C387C1F3460180F8401080F84150BDE8B1
:10247000F00310467047000000030020589502202A
:102480006895022038B5002401208DF80000410332
:102490001548FEF7F0FE002818BF8DF800409DF8A3
:1024A000000001281ED11148008901041048016074
:1024B0000D2141604021C0E9021409010161FFF7CB
:1024C0002BFE0D20FDF7DEFF60B90020FFF7E6FDD3
:1024D000C0F34320042804BF002038BDFF281CBFE0
:1024E000012038BD022038BD001C0240000300203E
:1024F000F895022038B500248DF8004000F0BEF9B0
:10250000FFF79EFD00F01AFA8DF800009DF800001C
:10251000002835D100F03EF88DF800009DF800004D
:1025200000282DD118480475046044608460C4609C
:102530000461FFF7CBFD1548FFF746FE8DF800005C
:102540009DF8000098B91148B0F8540001041048F3
:102550000160072141604021C0E9021409010161C5
:10256000FFF7DAFD0720FDF78DFF8DF800009DF8DD
:10257000000028B94FF40060FFF7EAFD8DF8000075
:102580009DF8000038BD0000E095022088950220EB
:10259000F89502202DE9F84F0120ADF80000FFF773
:1025A00075FD002804BF2520BDE8F88F694F7868C5
:1025B000042871D0684C4FF0C00A00260220C4F8ED
:1025C00008A0C4E900604FF48068C4E903682046AD
:1025D000FFF7A2FD614D286810F0450F03D1286870
:1025E00010F0450FFBD010F0040F06D00324042098
:1025F000FFF7F6FC2046BDE8F88F10F0010F06D07B
:1026000001242046FFF7ECFC2046BDE8F88F40F29D
:10261000FF50FFF7E5FC0020FFF740FDDFF8409199
:10262000C9F800000420FFF739FDC9F804000820AC
:10263000FFF734FDC9F808000C20FFF72FFDC9F89B
:102640000C007868002818BF012803D0062818BF9E
:10265000022840D10320C4E900604020C4F8108063
:10266000C4E902063C48FFF757FD28684FF0030B0A
:10267000E94610F0450F03D1286810F0450FFBD054
:1026800010F0040F42D110F0010F45D1FFF7E4FC28
:10269000584502D010241BE058E040F2FF50FFF7ED
:1026A0009FFC0020FFF7FAFC10F4604F04BF000C01
:1026B000A9F800000FD010F4005F18BF132407D151
:1026C00010F4804FE6D110F4004F18BF0F2402D051
:1026D0002046BDE8F88F7868042837D0BDF80000A0
:1026E000B860000420600920C4E9010AC4E9036855
:1026F0001948FFF711FD286810F0450F03D128682D
:1027000010F0450FFBD010F0040F02D0032404207A
:1027100004E010F0010F04D001242046FFF760FC14
:10272000D6E740F2FF50FFF75BFC0020FFF7B6FC56
:102730000C4C20600420FFF7B1FC60600820FFF71C
:10274000ADFCA0600C20FFF7A9FCE0600020BDE814
:10275000F88F000000030020F8950220342C01407F
:10276000689502205895022070B51F4E0C4605460C
:1027700090B04FF0FA513046FEF7D8F800213046BD
:10278000FEF700F93046FEF707F94FF000600090C1
:102790001648CDE901050020CDE903043115CDE946
:1027A0000501890007918900CDE908104FF44030F8
:1027B0000A9004200B9003200C9048020D9080108A
:1027C0000E9069463046FEF71DFA01221021304670
:1027D000FEF7F8F920213046FEF7B3F90121304623
:1027E000FEF7D0F810B070BD58640240802C014054
:1027F00070B5204E0C46054690B04FF0FA51304669
:10280000FEF794F800213046FEF7BCF83046FEF79C
:10281000C3F84FF0006000901748CDE90105402053
:10282000CDE9030400203115CDE9050189000791A8
:102830008900CDE908104FF440300A9004200B9035
:1028400003200C9048020D9080100E90694630468F
:10285000FEF7D8F9012210213046FEF7B3F9202106
:102860003046FEF76EF901213046FEF78BF810B0C6
:1028700070BD000058640240802C0140F0B583B068
:1028800001218C20FFF784FA294E0C2208213046C2
:10289000FEF7E0FC0C2209213046FEF7DBFC0C229F
:1028A0000A213046FEF7D6FC0C220B213046FEF7FB
:1028B000D1FC0C2211463046FEF7CCFC1D4F0C22F9
:1028C00002213846FEF7C6FC02218DF805108DF86E
:1028D00004104FF47060002400908DF8064001252C
:1028E0008DF8075069463046FEF76CFC04200090D6
:1028F00069463846FEF766FC280300908DF80740CD
:1029000069463046FEF75EFC680300908DF804408F
:102910008DF8075069460848FEF754FC0121C802AB
:10292000FFF766FA01218805FFF732FA03B0F0BD20
:1029300000080240000C0240001C02402DE9F84F44
:1029400000258DF800507A487621A846017505606B
:1029500045608560C560A9460561FFF7B7FB0320A8
:10296000FFF7F0FB0120FFF747FB724C4FF4806646
:10297000204625606560A560C4E90356FFF7CCFBDF
:10298000AA46B70101E07F1E11D08020FFF76AFB45
:102990000028F8D05FB140F2FF50FFF721FB00BFE5
:1029A0008DF800A09DF8000000287DD102E04FF0D6
:1029B000030AF5E74FF4D570206008204027C4E9EA
:1029C0000107C4E903565B48FFF7A6FBDFF868B1CF
:1029D0004FF0000AB902DBF8000000BF10F0450F0D
:1029E0000ED011B110F0040F11D04FF0030A0420E3
:1029F000FFF7F6FA8DF800A09DF80000D8B313E0B9
:102A000000291CBFDBF80000491EE7D1EDE710F0FC
:102A1000400F04D04FF0000A4020FFF7E1FA8DF894
:102A200000A09DF8000030B33720A760C4E9005033
:102A3000C4E903563F48FFF76FFB3720FDF722FD3F
:102A40008DF800004FF0370AA760C4E9005AC4E9C6
:102A500003563848FFF760FB3720FDF713FD8DF86C
:102A600000009DF80000002804BF49F4801949F0D7
:102A7000004959D106E0FFE7304801214FF0804975
:102A80004160DFE7A760C4E9005AC4E9035629485A
:102A9000FFF742FB3720FDF7F5FC8DF800009DF8AD
:102AA000000008B9292000E03EE0C4F80090C4E925
:102AB0000107C4E903561F48FFF72EFB1E494FF0DC
:102AC000000B086810F0450F03D1086810F0450F9F
:102AD000FBD010F0040F1ABF4FF0030B042040F29C
:102AE000FF50FFF77DFA8DF800B09DF80000D8B9CF
:102AF0000020FFF7D3FAC10F08F1010803D14FF608
:102B0000FF718845BED34FF6FF71884506D31B2061
:102B10008DF800009DF80000BDE8F88F10F0804FA0
:102B200002D00648022141609DF80000BDE8F88F00
:102B3000E0950220F8950220342C0140000300208B
:102B40000648006810F0C05F08BF704701200449C4
:102B500048614FF0C2510348FDF7E8BE00640240EF
:102B6000000300205864024010B54FF48070FFF756
:102B700083FA214C40B1002020704FF48070FFF7A1
:102B800035FA0120206130E00220FFF775FA28B104
:102B90000220FFF72BFA0220207026E00820FFF722
:102BA0006BFA20B10820FFF721FA042007E020206B
:102BB000FFF762FA28B12020FFF718FA06202070EC
:102BC00013E01020FFF758FA20B11020FFF70EFA9B
:102BD0000520F4E74FF40070FFF74EFA28B14FF4E8
:102BE0000070FFF703FA0720E9E700214CF23A30C2
:102BF000FFF760FA207810BD000300202DE9F047B0
:102C0000284D0026089F1446984681462E702E6156
:102C1000EE6025480660012140F22A30FFF74AFAAB
:102C20000120FFF7EFF939464846FFF79DFD686838
:102C3000022803D10702610A41EAC8541B4D4FF430
:102C400080691020C5F81090C5E900704FF0400869
:102C5000C5E902862846FFF75FFA1020FDF712FC4F
:102C6000002818BFBDE8F0874FF0FF311048C0E9D9
:102C70000017902181600221C0E903160121416102
:102C8000FFF7C6F91120C5F81090C5E90040C5E965
:102C900002860648FFF740FABDE8F0471120FDF72D
:102CA000F1BB0000000300202C2C0140F89502200D
:102CB0000C9602202DE9F05F2B4CDDE90A78002507
:102CC00016469A468346257025614FF00109C4F8DF
:102CD0000C9026480560494640F22A30FFF7EAF991
:102CE00008FB07F15846FFF73FFD0120FFF78AF97F
:102CF0006068022803D10702710A41EACA561C4CD7
:102D00004FF4806B1020C4F810B0C4E900704FF08D
:102D1000400AC4E902A52046FFF7FEF91020FDF79E
:102D2000B1FB002818BFBDE8F09F4FF0FF311148FC
:102D3000016008FB07F14160902181600221C0F829
:102D40001490C0E90315FFF763F91220C4F810B01E
:102D5000C4E90060C4E902A50548FFF7DDF9BDE854
:102D6000F05F1220FDF78EBB000300202C2C0140E9
:102D7000F89502200C9602202DE9F04100251D4C0B
:102D8000691E6069002801BF20690028207800289A
:102D900003D1002918BF491EF3D1002767611648E7
:102DA0007E1E016811F4005F1CBF002E761EF8D154
:102DB000E06801280FD111480C21C0E900714021C1
:102DC000C0E9021709010161FFF7A6F90C20FDF720
:102DD00059FB0546E76056EA050008BF042540F2A6
:102DE000FF50FFF7FDF82078002814BF2078284610
:102DF000BDE8F08100030020342C0140F89502204A
:102E00002DE9F04100251D4C691E6069002801BFB5
:102E1000206900282078002803D1002918BF491E06
:102E2000F3D10027676116487E1E016811F4805FA8
:102E30001CBF002E761EF8D1E06801280FD1114882
:102E40000C21C0E900714021C0E9021709010161AC
:102E5000FFF762F90C20FDF715FB0546E76056EA1F
:102E6000050008BF042540F2FF50FFF7B9F82078AD
:102E7000002814BF20782846BDE8F0810003002018
:102E8000342C0140F89502202DE9F0472A4E002409
:102E9000089F15469846814634703461F46027488F
:102EA0000460012140F22A30FFF704F93946484610
:102EB000FFF79EFC0120FFF7A5F87068022803D1F8
:102EC0000702690A41EAC8551D4E4FF0400910201B
:102ED000C6F80890C6E900704FF48068C6E9034858
:102EE0003046FFF719F91020FDF7CCFA002818BF7B
:102EF000BDE8F0871820C6F80890C6E90050C6E97A
:102F000003480F48FFF708F91820FDF7BBFA00281F
:102F100018BFBDE8F0874FF0FF310A48C0E900173D
:102F20009021C0E902140121C0E90441FFF770F8C3
:102F30002046BDE8F0870000000300202C2C014053
:102F4000F89502200C9602202DE9F05FDFF804B11D
:102F5000DDE90A9A002416461D4607468BF8004014
:102F6000CBF810400120CBF80C003B480460012155
:102F700040F22A30FFF79EF80AFB09F13846FFF7C6
:102F800037FC0120FFF73EF8DBF80400022804D1EB
:102F9000710A4FF4007941EAC556304D10204FF0C8
:102FA0004008C5F80090C5E901088701C5E9034755
:102FB0002846FFF7B1F81020FDF764FA002818BF83
:102FC000BDE8F09FBBF80800000428603720C5E981
:102FD0000108C5E903472148FFF79EF83720FDF7B0
:102FE00051FA002818BFBDE8F09F1720C5F800A0CF
:102FF000C5E90108C5E903471848FFF78DF8172010
:10300000FDF740FA002818BFBDE8F09F1920C5F869
:103010000880C5E90060C5E903471048FFF77CF860
:103020001920FDF72FFA002818BFBDE8F09F4FF0D8
:10303000FF300B4908600AFB09F048609020C1E9A5
:1030400002040120C1E904400846FEF7E1FF2046E2
:10305000BDE8F09F000300202C2C0140F8950220D1
:103060000C9602200246002012890A4218BF012055
:103070007047808970478181704770478A0721F0C7
:10308000030101F1804101F59831120F0F23D1F8AE
:1030900008C893402CEA0303C1F80838D1F808386F
:1030A00090401843C1F80808704708F07DB9000047
:1030B000374882B0016841F4700101603548016809
:1030C00041F001010160344900230B60026822F4E1
:1030D000102222F08072026000F1040C2F4ACCF81A
:1030E0000020026822F4802202600A1D136001930E
:1030F0000093026842F480320260026802F40032F7
:103100000092019A521C0192009A1AB9019AB2F5E2
:10311000A06FF2D1026812F4003F08BF009331D0D3
:10312000012200921E4A136843F0805313601D4A27
:10313000136843F4804313600A680A600A6842F423
:1031400000420A600A6842F4A0520A60164ACCF8AB
:103150000020026842F080720260026812F0007F74
:10316000FBD0124A40F205701060086820F003009E
:103170000860086840F002000860086800F00C0071
:103180000828FAD10A494FF00060086002B0704781
:1031900088ED00E00038024008380240103000247A
:1031A000403802400070004018544007003C024084
:1031B00008ED00E010B50D4C0121204600F01CF890
:1031C0000021204600F01BF8094801210170806DA4
:1031D00020F00040C0F1FF40002858BF10BD9FED17
:1031E000050ABDE8104008F0B1BA0000000C00402C
:1031F000E000002000000000C94301827047002960
:10320000018814BF41F0010121F0010101807047E4
:10321000002A828914BF114322EA0101818170478B
:1032200010B402881C4BDFF874C0984218BF604588
:1032300011D0B0F1804F1CBFA0F18044B4F5806480
:1032400009D0A0F18044B4F500641CBFA0F1804413
:10325000B4F5406403D14C8822F070022243A0F1FF
:103260008044B4F580541CBFA0F18044B4F5A05450
:1032700003D00C8922F44072224302804A68C26261
:103280000A880285984212BF6045897A0186012129
:10329000818210BC70470000000001400004014022
:1032A0002DE9F041354C40F22551204600F019F946
:1032B000002808BFBDE8F081204600F0ADF9C0B29B
:1032C000012700252E4C522811D0A0F1300204F124
:1032D0006001092A14D86269002A08BFBDE8F0819C
:1032E000226988542069401C2061BDE8F081256175
:1032F0006761BDE8F0414FF480712248FDF7C2BF1D
:103300000D2838D16069B0B32069042833D10D711C
:103310001D48FCF7BBFF0646153841F27F11884275
:1033200028BF9FED1A0A24D2A068606004F0D8FB81
:10333000A060A068E061A0686168DFED150A401A2E
:1033400000EE100AB8EE400A80EE201A84ED031A4F
:10335000E665E06D9FED0F1A00EE100AF8EEC00A68
:1033600080EE810A05F050FB84ED0E0AA761B7EEEE
:10337000000A84ED0F0A6561BDE8F081004C004051
:10338000E00000200010024040010020000000008A
:103390000024744900007A4470B5224D40F2255152
:1033A000284600F09EF8204CC8B1284600F034F9B9
:1033B0001E4AE1685054491CC81701EB506020F0C8
:1033C0007F00091AA06881421CBFE16070BD002225
:1033D0002846BDE8704040F2255100F0A8B840F200
:1033E0002771284600F07DF8002808BF70BDD4E999
:1033F000000188420ED00E49095C284600F010F901
:103400002068401CC11700EB516121F07F01401A78
:10341000206070BD2846BDE87040002240F2277150
:1034200000F085B8004400406801002090010220AF
:103430001001022070B5224D40F22551284600F0BF
:1034400050F8204CC8B1284600F0E6F81E4AE16961
:103450005054491CC81701EB506020F07F00091A36
:10346000A06981421CBFE16170BD00222846BDE811
:10347000704040F2255100F05AB840F227712846BA
:1034800000F02FF8002808BF70BDD4E9040188427D
:103490000ED00E49095C284600F0C2F82069401C95
:1034A000C11700EB516121F07F01401A206170BD0E
:1034B0002846BDE87040002240F2277100F037B87E
:1034C0000048004068010020900202201002022003
:1034D0000029818914BF41F4005121F400518181F8
:1034E000704710B401F01F0201240023C1F3421CF5
:1034F00004FA02F2BCF1010F04BFB0F80CC00CEAF0
:10350000020208D0BCF1020F0CBFB0F810C0B0F836
:1035100014C00CEA0202090A008804FA01F108400A
:10352000002A1CBF00280123184610BC7047C1F3B5
:10353000421301F01F014FF0010C0CFA01F1012BB5
:1035400008BF0C3003D0022B0CBF10301430002AFF
:10355000026814BF114322EA0101016070470000B4
:1035600030B50446008A85B00D46C98820F4405025
:1035700008432082A089A9882A8920F40370114376
:103580006A8920F4A05010430843A081A08AA98929
:1035900020F440700843A0826846FEF747FCA4F17F
:1035A0008040B0F588301BBFA4F18040B0F58A3070
:1035B00003980298A18911F4004F00EBC00101EBC0
:1035C0000010296814BF49008900B0FBF1F0114ACE
:1035D0006FF0180CA2FB0031490909010B0903FB2C
:1035E0000CF300EB8300A38913F4004F4FF0320378
:1035F00014BF03EBC00003EB0010A2FB00204FEA56
:10360000501014BF00F0070000F00F0008432081A5
:1036100005B030BD1F85EB518088C0F308007047AE
:10362000C1F308018180704710B5D0F8E4255268D5
:103630009047002010BD10B5134600240A462146CD
:10364000FDF705F8204610BD10B5134600240A46C4
:103650002146FDF743F8204610BD10B504468021F1
:10366000FDF71FF800212046FDF71BF82046BDE8B6
:10367000104001F075B910B5C0F894230323C0F8C9
:10368000902380F81131134600240A462146FCF7A6
:10369000DEFF204610BD70B505460024052085F8E4
:1036A00011012346224621462846FCF7D0FF284632
:1036B00001F056F9204670BD10B5C0F83C21022338
:1036C000C0F8382180F81131134600240A462146FB
:1036D000FDF704F8204610BD70B50546002404200F
:1036E00085F811012346224621462846FCF7F6FFBD
:1036F000284601F035F9204670BD000070B505463A
:1037000059B1D5F8E4054269002A4AD095F812016A
:10371000032804BF2846904743E095F8110100268E
:1037200005F58E74022832D1E169A06881420FD973
:10373000081AE061E878012803D1D4E902100844AE
:10374000E060A08BE16882B22846FFF77DFF1EE0B3
:10375000216AB1FBF0F200FB12125AB9814209D37F
:10376000606A814206D2002211462846FFF76CFFAC
:1037700066620CE0D5F8E405C16829B195F812013C
:10378000032804BF284688472846FFF784FF95F89A
:103790001601012805D1044800682969486085F8A8
:1037A0001661002070BD00004C02002010B50446D8
:1037B00059B1D4F8E4058269002A31D094F8120195
:1037C000032804BF204690472AE094F8110104F52D
:1037D0005D71032824D1CA698868824213D9101AFE
:1037E000C861E078012803D1D1E902201044C86003
:1037F000CA698868824238BF104682B2C9682046CA
:10380000FFF719FF0CE0D4F8E405016929B194F839
:103810001201032804BF204688472046FFF75CFFBB
:10382000002010BD10B50446D0F8E8054069804777
:10383000012084F81501002010BD10B50446D0F811
:10384000E80580698047D4F8E405002142682046F5
:103850009047002084F8150110BD000030B4002509
:10386000002804BF30BC7047034604784FF0000CBA
:1038700044B100BF13F8014F0CF1010C0CF0FF0C28
:10388000002CF7D1022303EB4C0313804B556A1C29
:1038900003238B540378AA1C002B12BF002330BCD7
:1038A000704700BF10F801CB01F802C0521CD2B221
:1038B0008B54521C90F800C0D2B2BCF1000FF1D171
:1038C00030BC70472DE9F0411D4617468846044636
:1038D000069E00F0D7FDC4F8EC75C4F8E8654146D3
:1038E0002046C4F8E455FCF718FFD4F8E805006852
:1038F00080472046BDE8F04100F0B0BD10B5D0F8DB
:10390000E415096A8847002010BD10B5D0F8E41509
:10391000496A8847002010BD2DE9F04F8FB0064658
:10392000002701F0B6F9002800F06082304601F06F
:10393000B8F95FEA000B04BF0FB0BDE8F08F1BF4CD
:10394000002F5BD00024304601F0B6F905001CBF03
:103950004FF0080ADFF8B8944ED000BF15F0010F01
:1039600047D0E1B2304601F0ADF9804610F0010FCA
:1039700028D006EB84004FF00108416DC1F80880A3
:10398000F17801290CD1406D006904EB840206EB4B
:10399000C201C0F31200D1F87C23101AC1F88C03C5
:1039A000D9F80000E1B2026830469047F07801286B
:1039B00008BF002C06D196F81101052804BF304637
:1039C00000F0CEFF18F0020F06D006EB84004FF097
:1039D0000208406DC0F8088018F0080F09D0D9F827
:1039E000000081683046884706EB8400406DC0F8CF
:1039F00008A0641C6D08B1D147F001071BF4802FAB
:103A000074D00024304601F051F95FEA000A6ED00C
:103A10001AF0010F6CD03069E2B2D0F810C0436BDD
:103A200006EB8201D340896903F001034CEAC3131A
:103A3000896801EA030515F0010F1CD00125426BCE
:103A400005FA04F122EA0101416306EB8400806972
:103A50008560EF48E1B20068426830469047F078F0
:103A6000012808BF002C06D196F81101042804BFD4
:103A7000304600F075FF15F0080F04D006EB840007
:103A800008258069856015F0100F04D006EB8400CE
:103A900010258069856015F0400F04D006EB840086
:103AA00040258069856015F0020F04D006EB840084
:103AB00002258069856015F0800F4FD004EB8401EA
:103AC00006EBC10000F58E750196D5E90501401A97
:103AD000A968884200F29881C01C4FEA900906EB61
:103AE00084000B900A90806980692AE03DE03AE00A
:103AF00034E000BFA0EB0108A8684045C0F0868113
:103B000008F103004FEA90091FFA88F3E2B2E9686E
:103B1000019801F0A1F9E8684044E860A8694044D0
:103B2000A8616969884209D32978012088400199F0
:103B300009694A6B22EA000048630BE00A98806931
:103B4000806980B2484584BFD5E90501884201D922
:103B50000028CFD10B99802089698860641C5FEAB6
:103B60005A0A7FF455AF47F001071BF0020F02D04D
:103B7000F168022048611BF0004F18D0B07A30B1D4
:103B8000D6F80C01D6F80C1120F00300086030695B
:103B9000416821F0010141609D480068816930461B
:103BA0008847F1684FF00040486147F001071BF477
:103BB000006F32D000208DF8040096F812018DF8C5
:103BC000040093480068416930468847306980683E
:103BD000F2684FF400615161B17A002918BF10F00A
:103BE000010F18D096F81501012804BF9DF80400B4
:103BF000032810D1D6F80C01016841F001010160E1
:103C0000D6F80C01016841F00301016081480168A8
:103C100041F00601016047F001071BF0080F09D0D1
:103C20007B480068C16830468847F16808204861D1
:103C300047F001071BF0100F3BD0F068816921F0BD
:103C400010018161F068056A05F00F0000EB80014A
:103C500006EBC10000F55D74C5F34340072821D28F
:103C6000DFE800F0202004202020150047F6F07047
:103C7000054217D0C5F30A152A463046E16801F01F
:103C800029F8E0682844E060A069284409E0082297
:103C9000304606F2CC5101F01DF8A069C5F30A11B7
:103CA0000844A061F068816941F01001816147F02A
:103CB00001071BF4805F41D0306900240125416871
:103CC00021F0010141602146304600F0A9FF7178E2
:103CD0000020002988BFFF220AD900BF06EB80011F
:103CE0008B699A60496D8A607178401C8142F5D871
:103CF00030694FF0FF3181612046316965F30F0073
:103D000065F31F40C861316944F00B0048613169B7
:103D100044F00B0008613069016821F4FE61016024
:103D2000304600F01DFEF1684FF48050486138487D
:103D3000006801693046884747F001071BF4005FBF
:103D400019D0304600F07EFDF068C468304600F0BF
:103D50008BFF03284ED00121B1704020B08024F4A5
:103D6000705000F5A050F168C860F1684FF4005041
:103D7000486147F001071BF4801F0AD024480068FF
:103D8000C16930468847F1684FF48010486147F0B8
:103D900001071BF4001F0AD01D480068016A304665
:103DA0008847F1684FF40010486147F001071BF0A5
:103DB000804F0AD016480068416A30468847F1684B
:103DC0004FF08040486147F001071BF0040F0DD011
:103DD000F068446814F0040F04D00D480068816A4C
:103DE00030468847F068446047F001070FB0384616
:103DF000BDE8F08F0020B0704FF4007124F47050D3
:103E0000B18000F51050AEE7084665E6804677E6DB
:103E10004802002010ED00E090F8CC250A7090F8E0
:103E2000CD254A7090F8CE2590F8CF3502EB0322CD
:103E30004A8090F8D02590F8D13502EB03228A8091
:103E400090F8D22590F8D33502EB032292B2CA80C3
:103E50000121C0F8402180F81111704710B50023EE
:103E6000044640221946FCF7D2FB00234022802161
:103E70002046FCF7CCFB012084F81201D4F8E815A9
:103E8000A07849688847002010BD10B50446D0F8D6
:103E9000E80500698047032084F81201002010BD66
:103EA00010B5D0F8E415C969002918BF884700206B
:103EB00010BD10B50446D0F8E405026820469047CE
:103EC000D4F8E80580688047002010BD10B582B0A6
:103ED00004466946FFF7A0FF9DF8001011F01F028D
:103EE0000BD0012A0ED0022A11D001F08001204609
:103EF000FCF7D7FB02B0002010BD6946204600F059
:103F00000BF8F7E76946204600F006FAF2E7694643
:103F1000204600F077F9EDE7F8B50D464978002620
:103F20000A2980F0ED80DFE801F0FDF8EBF7EB7295
:103F300005EBDB9204466888010A04297DD2DFE89C
:103F400001F092021420D4F8EC15A0780A686946B2
:103F500090470146E888402819BF94F812010128CB
:103F60000820ADF8000047D042E0D4F8E415A0786E
:103F70008A6A69469047014602204870C4F8F015E5
:103F800036E0C0B206286ED2DFE800F0030B131B48
:103F9000232BD4F8EC15A0784A686946904701466F
:103FA00026E0D4F8EC15A0788A6869469047014667
:103FB0001EE0D4F8EC15A078CA686946904701461F
:103FC00016E0D4F8EC15A0780A69694690470146D6
:103FD0000EE0D4F8EC15A0784A696946904701468E
:103FE00006E0D4F8EC15A0788A6969469047014646
:103FF000BDF80000002841D0EA88002A3ED080B2F7
:10400000824288BF0246ADF80020204687E0044681
:10401000A888002804BFE888002824D1A87800F0E8
:104020007F0594F8120103281DD084F81451294605
:104030002046FCF72EFB204600E014E0FFF74CFB87
:10404000002D0CBF0120022084F8120116E0A9788F
:10405000684D04460129297005D894F812010228F8
:104060000ED003281DD080212046FCF71AFB00212A
:104070002046FCF716FB204600F072FC3046F8BDE7
:1040800059B184F81011032084F812012046FFF77B
:1040900010FF2046FFF720FBF0E72046FFF71CFB50
:1040A000ECE789B194F810018842F6D00146204629
:1040B000FFF7BAFA297884F810112046FFF7F9FEC5
:1040C0002046FFF709FBD9E7022084F8120184F8A3
:1040D00010112046FFF7A8FA2046FFF7FDFACDE7BA
:1040E000E98801290CD190F81211022904BF01229C
:1040F000414914D0032904BF012200F588710ED074
:1041000004468021FCF7CDFA00212046FCF7C9FACD
:10411000204600F025FCB1E716E052E002E0FFF790
:10412000CBFAABE790F81211022918BF0329E7D1A7
:1041300030490022CA60D0F81821002A1CBF022290
:10414000CA6002222D49EAE7044668882946012808
:104150000FD0022804BFA98811F0FF0F8ED120696B
:104160004068090A062923D2DFE801F0220F13175D
:104170001B1F0120C4F81801D4F8E405826820460A
:1041800090472046FFF7A8FA78E720F0700010303B
:104190000EE020F0700020300AE020F07000303097
:1041A00006E020F07000403002E020F07000503057
:1041B00013490860012084F816012046FFF78CFAA5
:1041C0005CE7044690F812012946022818BF03282C
:1041D0007FF449AF488801287FF450AF0020C4F82D
:1041E0001801D4F8E4058268204690472046FFF77E
:1041F00073FA43E750020020580200205C020020BE
:104200004C02002070B50D460446687800260979F6
:10421000002843D0012822D0032850D194F812015D
:10422000022802D0032808D03EE0002918BF8029C8
:1042300045D02046FCF735FA41E0688828B90029C6
:104240001EBF80292046FCF72CFAD4F8E405294645
:104250008268204690472046FFF73EFA2FE094F808
:104260001201022802D0032805D01DE0002918BF42
:104270008029DED123E0688808BB002918BF802987
:1042800008D02046FCF7A6F9D4F8E4052946826850
:10429000204690472046FFF71FFA10E094F81201DD
:1042A00002280ED0032811D080212046FCF7F9F90E
:1042B00000212046FCF7F5F9204600F051FB30467E
:1042C00070BD002918BF8029B3D1F8E7104811F05C
:1042D000800F4FF000024FF0010309D001F07F0181
:1042E00001EB810104EBC10191F81E1149B106E017
:1042F00001EB810104EBC10191F8761309B1436030
:1043000000E04260022203492046FFF7D5F9D6E7D4
:10431000500200205402002070B5044690F81201AB
:1043200000260D4603280ED1287901280BD8D4F891
:10433000E405826820469047E888002804BF2046AC
:10434000FFF7CAF90AE080212046FCF7AAF900210C
:104350002046FCF7A6F9204600F002FB304670BD6F
:1043600010B590F8121180F81311042180F8121181
:10437000D0F8E805C0688047002010BD10B50A4697
:10438000024903A0FFF76AFA004810BDF8130220A3
:1043900056435020436F6E66696700007047704750
:1043A0001220088000487047CC01002070477047F9
:1043B000704770477047000010B50A46024903A0D5
:1043C000FFF74CFA004810BDF81302205643502066
:1043D000496E7465726661636500000004200880A0
:1043E00000487047C801002010B50A46024903A0E2
:1043F000FFF734FA004810BDF8130220334420526E
:104400006F626F746963730010B50A46024903A0B6
:10441000FFF724FA004810BDF81302205058344624
:104420006C6F772076312E330000000010B50A46FD
:10443000024903A0FFF712FA004810BDF81302204A
:10444000303030303030303030303030000000002C
:1044500043200880004870478802002008B54FF4C8
:10446000C060FDF783FC43208DF8000001208DF82B
:10447000010003218DF802108DF803006846FDF756
:104480003DFC08BD10B5012182B00846FDF780FC57
:104490004FF4C850009003208DF8050002208DF8DD
:1044A000040000208DF806000F4C8DF807006946C7
:1044B0002046FCF787FE0A2208212046FCF7CAFEA8
:1044C0000A220B212046FCF7C5FE0A220C212046B9
:1044D000FCF7C0FE01218803FDF78AFC0121802042
:1044E000FDF762FC02B010BD000002404FF47A718B
:1044F0004143C1EB0111DFF818C00020CB00624638
:104500000146E3FB0C214908401C8842FCD9704756
:1045100049922449C0EB0010DFF818C00021C30005
:1045200062460846E3FB0C204008491C8142FCD946
:1045300070470000499224492DE9F8430446017A66
:104540004FF00008424DC0684746012937D0C16886
:1045500041F04001C160002600970320FFF7DAFF19
:10456000E06800690090761CAE4218D8009810F000
:10457000004FF2D00099002041F001010091009914
:10458000E2681161E1680A690092401CA84203D800
:10459000009A12F0010FF6D10320FFF7BBFF617AFA
:1045A0004FF45020002918BF4FF4E810E1688863E9
:1045B0001420FFF79BFFE078012846D13DE0816B96
:1045C000627A21F48031002A18BF41F4801181639E
:1045D000E168CA6822F0400222F49402CA60002610
:1045E00000970320FFF796FFE06800690090761CB3
:1045F000AE4218D8009810F0004FF2D00099002079
:1046000041F0010100910099E2681161E1680A69D5
:104610000092401CA84203D8009A12F0010FF6D174
:104620000320FFF777FFE07801280ED1E16807F15A
:104630000A0040F020008860BDE7E168886820F04B
:104640001E000A3040F0200088604046BDE8F88334
:10465000400D03002DE9F8430446D0F80C01002773
:104660003E4607602069016821F4C0510160E07A8C
:1046700001282DD121690322086862F30100086036
:10468000E068802141624022304662F31F40E268C8
:1046900061F30F00906200EB1040B04660F30F082A
:1046A000E06861F31F48C0F8048108EB184060F32C
:1046B0000F08202060F31F48E068C0F8088108EB6D
:1046C000184060F30F08E06866F31F48C0F80C81DB
:1046D000102100200096009A42F020020092009AD9
:1046E00061F38A1200920099E26811614F4DE1680E
:1046F0000A690092401CA84203D8009A12F0200FC9
:10470000F6D10320FFF706FF00200096009941F044
:10471000100100910099E2681161E1680A69009254
:10472000401CA84203D8009A12F0100FF6D10320C3
:10473000FFF7F0FE206906612069466120694FF0AD
:10474000FF3585612069C661617800204FF0904394
:104750004FF0FF0C002915D904EB8002D2F8188025
:10476000D8F8001011F0004F14BF19463146C8F8B0
:10477000001091690E619169C1F808C06178401C10
:104780008142E9D8002011F0FF0F15D004EB800220
:10479000D2F85480D8F8001011F0004F14BF194619
:1047A0003146C8F80010516D0E61516DC1F808C056
:1047B0006178401C8142E9D82069016941F4807127
:1047C0000161E07801280CD103206FF38A0000F525
:1047D000807040F4803021696FF3594000F500008B
:1047E0000863E0688661E1686FF080404861E168D5
:1047F0004D60E1684861E1680D488861E078002813
:1048000008BF102646F4872040F40020E16840F0FD
:10481000080040F4401040F004008A6940F08040F5
:104820008243104388613846BDE8F883400D030099
:1048300000080080C0680021826822F001028260C6
:104840000846704701690023D1F808C082691168E1
:10485000CCF3410CBCF1000F18BFBCF1010F09D023
:10486000BCF1020F04BF6FF30A01C91C04D0BCF1F4
:10487000030F01D16FF30A0111600069416841F42F
:10488000807141601846704770B44A7800254B69C2
:10489000012A16D00A7800EB8204626DD2F800C0BB
:1048A0001269002B43D08B684B6163F3060222F43C
:1048B000C01202F50022636D1A61C278012A44D148
:1048C0003DE0D0F818C0DCF80060DCF8102063B1DF
:1048D0008C68A34292BF63F3060264F306024C6144
:1048E00022F4C01202F5002205E022F07F0222F439
:1048F000C01202F50022CCF81020C278012A05D19E
:104900000B780A6900EB83039B695A6146F0044205
:10491000CCF80020C278FAB94A69EAB1097800698E
:10492000012202FA01F1426B1143416314E00B7A58
:1049300063F3060222F4C01202F50022BBE70B78F3
:104940000A6900EB83035B6D5A6109784CF00442FD
:1049500000EB8100406D0260284670BC704700008B
:10496000426D08491161C178012918BF704700F2F2
:10497000CC51426D5161406D01684FF08021016062
:1049800070470000180008C070B40A7800244E7800
:10499000012500EB820C05FA02F22346012E07BF27
:1049A000DCF818C062F30F03DCF854C062F31F4355
:1049B000DCF8002012F4004F0ED10D8965F30A02D5
:1049C000CD78897965F3934261F3995242F40041BD
:1049D00041F08051CCF800100069C1691943C161F0
:1049E000204670BC7047024691F801C00B78002049
:1049F00002EB8302BCF1010F0CBF9269526D136888
:104A0000C97823F40013032914BF022943F080530B
:104A10001360704710B402460B784C784FF0010CCD
:104A200002EB830100200CFA03F3012C0CBFD1F838
:104A300018C0D1F854C001460CBF63F30F0163F3F3
:104A40001F41CCF800001269D36923EA0101D1614A
:104A500010BC704702464B780978002002EB8101B8
:104A6000012B05D0496D0A6842F400120A607047B4
:104A70008A69116811F0004F18BF41F0804141F47C
:104A8000001111607047000070B44B780A78002460
:104A90004D6900EB8202012B18D0536D1A68D3F8D0
:104AA00010C0002D7DD08E6835446D1EB5FBF6F527
:104AB00065F3DC4CCCF3C945754365F3120C00BFBC
:104AC000C3F810C0C378012B6CD183E0D2F818C0B2
:104AD000DCF80030DCF8102085B18E6865F3120236
:104AE00035446D1EB5FBF6F565F3DC42CD78012D3E
:104AF00004BF22F0C04202F1005205E06FF312023F
:104B00006FF3DC4202F50022CCF81020C278012AB3
:104B10001ED0CA78012A25D04A6972B10A784FF0AE
:104B2000010C0CFA02F2D0F810C0DCF834502A4321
:104B3000CCF83420CA78012A14D043F004420B7810
:104B400000EB83039B691A60CA78012A55D113E0F0
:104B500091F800C00A6900EB8C0CDCF818C0CCF8A6
:104B60001420E7E70269926812F4807F0CBF43F0DB
:104B7000005343F08053E0E70B78CA68898A90F8C5
:104B800003C089B2BCF1000F37D1C91C00EB830010
:104B90005FEA910CD0F8D0102FD01CF0010005D0A6
:104BA00001E00FE01FE052F8043B0B60604524D2A7
:104BB00052F8043B0B6052F8043B0B60801C6045CC
:104BC000F6D31AE08D6865F3120C6FF3DC4C0CF52C
:104BD000002C75E791F800C00B6900EB8C0CDCF839
:104BE00054C0CCF81430CB78012B09D0097842F0AE
:104BF000044200EB8100406D0260204670BC7047AB
:104C00004B79002B14BF42F0005242F08052EDE786
:104C1000C0680021826842F0010282600846704745
:104C200038B5002422460094009B43F020030093F3
:104C3000009B61F38A1300930099C3681961094BC3
:104C4000D0F80C10D1F810C0CDF800C0521C9A4218
:104C500003D8009810F0200FF4D10320FFF75AFC7E
:104C6000204638BD400D03000146002009698968CF
:104C7000C1F34101002904BF03207047012906D078
:104C8000022904BF01207047032918BF7047022082
:104C90007047C068406910F0010F0CBF0120002070
:104CA0007047C06841698069084070470069816940
:104CB000C069084080B2704700698169C0690840D6
:104CC000000C704700EB8101496D896800694069FB
:104CD00008407047D21CD0F8D030920813D012F0A0
:104CE000010003D0D3F800C041F804CB90420AD2AF
:104CF000D3F800C041F804CBD3F800C0801C41F8C1
:104D000004CB9042F4D308467047000070B40022F0
:104D1000C2704FF0010C402480F802C015461346C3
:104D20008480012901D069B115E080F80BC0082109
:104D3000017004214FF0A04241709115C180022101
:104D4000017208E0C3720C21017006214170364ADD
:104D50004FF4A061C18002F50061C0E903214378EE
:104D6000002B18BF00210DD002EB411C00EB810489
:104D70000CF510660CF5306C491CC4F854C0A661E3
:104D80005B1EF1D102F5806141614031C0F8CC1069
:104D900090F800C0BCF1000F3ED000231CF00101D0
:104DA00004D002F5A063C0F8903001238C4519D9D6
:104DB00002EB431C00EB83040CF5A06C5B1CC4F8F5
:104DC00090C002EB431C00EB83040CF5A06CC4F80C
:104DD00090C090F800C0891C5B1C8C45E8D81CF082
:104DE000FF0F19D00CF0FF0313F001011CBF02F5F7
:104DF000805CC0F8D0C08B420ED900BF02EB0133FB
:104E000003F5805400EB810C03F50053CCE93443E7
:104E10000378891C8B42F1D802F56061C0F80C114F
:104E2000284670BC704700000000044010B5C06800
:104E30000024C268012922F0C04208BF42F000529B
:104E400003D0002908BF42F08042C2603220FFF741
:104E50004DFB204610BD000010B4844600209CF895
:104E60000340002C1CBF10BC7047DB1C0CEB820203
:104E70009B08D2F8D0C004BF10BC704713F00102E9
:104E800003D051F8044BCCF800409A4224BF10BC28
:104E9000704700BF51F8044BCCF8004051F8044B68
:104EA000CCF80040921C9A42F4D310BC7047FEE745
:104EB000042815DD202813D0212811D109480278B3
:104EC0000A700288120A4A700268120C8A7002681C
:104ED000120ECA7002790A7142794A71807988711A
:104EE0000020704790010020F0B40023002915D95C
:104EF0000D4A0C4D0026D2F804C01468C75C2F552B
:104F0000641C1460802C08BF16601468644502D1CC
:104F1000F0BC022070475B1C8B42EED3F0BC00203B
:104F200070470000100302208801002070B40023A5
:104F3000A9B1154C0025154AB1F1004F12D2002934
:104F40000DDD00BF136810F801CB04F803C05B1C33
:104F50001360B3F5004F08BF1560491EF2D170BC55
:104F600000207047D2F800C0C65C5B1C04F80C60DF
:104F70000CF1010CC2F800C0BCF5004F08BF156071
:104F80008B42EFD3EBE700003715022068020020C8
:104F900000207047002070470949D1E90032934250
:104FA00004BF00207047074B9A5C02704868401CA1
:104FB0004860802804BF002048600120704700003E
:104FC000880100201003022001B501216846FFF787
:104FD000ADFF08BD0FB4054B10B503A9044A0298F4
:104FE00000F06EF910BC5DF814FB0000FD780008BD
:104FF000180300200A6802608B88838091F806C03D
:1050000080F806C070470A684B680260436091F8F8
:1050100008C080F808C0704700487047240300208B
:1050200002E008C8121F08C1002AFAD17047704771
:10503000002001E001C1121F002AFBD170470000CF
:105040002DE9F043904607465D4A85B000EB4700E6
:1050500002EB8000FE228DF804201E468DF80530FC
:10506000584B82798DF806201C788DF80740DDF8C2
:1050700030C05B788DF808308DF80910511C8171B3
:105080000DF105024FF6FF705FF0040112F8013BCD
:10509000491E434083EA0313000ADBB280EA03207F
:1050A00080EAC30080EA1310B1F1FF3FEEDC711E0D
:1050B000ADF800006A464546B1F1FF3F13DD00BF81
:1050C00015F8010B1388491E584080EA00101B0A8E
:1050D000C0B283EA002383EAC00383EA1010108081
:1050E000B1F1FF3FECDCBDF8000001AD80EA0C013E
:1050F00081EA0111C9B2000A80EA012080EAC100F8
:1051000080EA1110ADF800008DF80C00000A8DF84F
:105110000D004FF0060937B1012F09D0022F08BF4B
:1051200000240AD00FE00621284606F0DDFB0AE045
:105130000621284606F068FB05E0285DFFF744FFDE
:10514000641C4C45F9DB4546344627B1012F07D096
:10515000022F0AD012E03146404606F0C5FB0DE0B2
:105160003146404606F050FB08E00026002C05DDE5
:10517000A85DFFF729FF761CB442F9DC03AC0226D8
:1051800087B1012F15D0022F0EBF002505B0BDE855
:10519000F083605DFFF718FF6D1CB542F9DB05B0C9
:1051A000BDE8F0830221204606F09EFB05B0BDE875
:1051B000F0830221204606F027FB05B0BDE8F0830E
:1051C00028030020980700202DE9F04184B01D46F7
:1051D00016460C460746DDF8288004F0B5FAFE2195
:1051E0008DF804108DF8055081798DF8061033493B
:1051F0004FF0040C0A788DF8072049788DF80810D4
:105200008DF8094081794FF6FF72491C81710DF1CB
:10521000050100BF11F8010BACF1010C504080EA10
:105220000010120AC0B282EA002282EAC00282EAB8
:105230001012BCF1FF3FEDDCADF800206A1E69469C
:105240003446B2F1FF3F12DD14F8010B0B88521EF9
:10525000584080EA00101B0AC0B283EA002383EAA8
:10526000C00383EA10100880B2F1FF3FECDCBDF808
:105270000010062281EA080080EA0010C0B2090A84
:1052800081EA002181EAC00181EA1010ADF8000036
:105290008DF80C00000A8DF80D00384601A904F0C5
:1052A00003FC384631462A4604F0FEFB384603A983
:1052B000022204F0F9FB04B0BDE8F0819807002059
:1052C0002DE9FF4F8BB088460546002606E02528CD
:1052D0000BD0DDE90D1290476D1C761C2878002854
:1052E000F5D10FB03046BDE8F08F0024A146A246AC
:1052F0000122AE4900E0044315F8013F203B02FAC9
:1053000003F00842F7D128782A2810D06FF02F0236
:105310002878A0F13001092915D809EB890102EBA1
:10532000410144F0020400EB01096D1CF0E758F85C
:10533000041B5FEA010903D544F40054C9F10009D4
:1053400044F002046D1C28782E2817D115F8010F9F
:1053500044F004042A280ED06FF02F022878A0F120
:10536000300109290AD80AEB8A0102EB410100EB5E
:10537000010A6D1CF2E758F804AB6D1C28786C2804
:105380000FD006DC4C2817D068280DD06A2814D11D
:1053900004E0742810D07A280FD10DE044F40014F2
:1053A0000AE044F4801401E044F440146978814236
:1053B00002D104F580146D1C6D1C2878692865D015
:1053C00006DC00288DD0632827D0642806D15DE054
:1053D0006E2808D073282AD0752877D0DDE90D1201
:1053E0009047761CE0E0C4F30250022809D003285D
:1053F0000DD0D8F8001004280DD00E6008F1040874
:10540000D2E0D8F80010F217C1E90062F6E7D8F848
:1054100000100E80F2E70E70F0E718F8041B8DF80C
:10542000001000208DF80100EB46012003E058F841
:1054300004BB4FF0FF3061074FF0000701D40AE0D2
:105440007F1C57450DDA8742FADB1BF8071000294D
:10545000F6D106E07F1C8742FCDB1BF80710002911
:10546000F8D1DDE90D23A9EB07008146214600F0C4
:10547000B1F83044C61904E0DDE90D121BF8010B48
:1054800090477F1EF8D22146484688E058F8040B22
:10549000C4F302514FF00A0B032900D100B20429D2
:1054A00000D140B2002802DA40422D2102E021055D
:1054B00005D52B218DF82410012104E006E0E10739
:1054C00010D02021F6E708AF089113E058F8040B3C
:1054D000C4F302514FF00A0B032900D180B2042912
:1054E00000D1C0B20021EEE75946FAF7DCFE3031B8
:1054F00007F8011D0028F7D1ADEB070000F1200BE4
:10550000600702D524F4803401E04FF0010ADA4547
:1055100002DDAAEB0B0000E00020824600EB0B014D
:1055200008980144A9EB01000A90E00306D4DDE9E4
:105530000D2321460A9800F04DF806444FF000096B
:1055400008E009A911F80900DDE90D12904709F1F9
:105550000109761C08998945F3DBE0030CD5DDE9E8
:105560000D2321460A9800F035F8064404E0DDE9F1
:105570000D1230209047761CBAF10001AAF1010A01
:10558000F5DC05E0DDE90D1217F8010B9047761CFC
:10559000BBF10001ABF1010BF4DC0A982146DDE917
:1055A0000D2300F005F806446D1C97E6092801005C
:1055B0002DE9F041044600251E461746880404D410
:1055C00005E039462020B0476D1C641EF9D52846F9
:1055D000BDE8F0812DE9F041044600251E469046C5
:1055E000C80301D5302700E02027880404D505E052
:1055F00041463846B0476D1C641EF9D52846BDE8C3
:10560000F081000001490120887170478C00002062
:105610000849094A91ED000ABCEEC00A10EE100AD2
:10562000107091ED010ABCEEC00A10EE100A507025
:10563000704700000CFE01209807002038B5154C7B
:105640002068262828BF38BD81B2134D009105EB94
:105650008001C0EB001091ED000A284400F1980190
:1056600026230922002004F077F82068262381B23F
:10567000009105EB8001C0EB001091ED000A284479
:1056800000F198010922022004F066F82068401C0D
:10569000206038BD000000200CFE012000B5C7B01E
:1056A000002044904590469006F0F2F8002804BF90
:1056B00047B000BD06F0F6F8014644AB6A4600204C
:1056C00004F0F2F818B16946002002F091FE06F0ED
:1056D000DFF80028EED147B000BD00B5C7B000200C
:1056E00044904590469006F063F8002804BF47B008
:1056F00000BD06F067F8014644AB6A46012004F09D
:10570000D3F818B16946012002F072FE06F050F895
:105710000028EED147B000BD00B5C9B000204590CB
:105720004690479044A8FFF737FC002804BF49B0D3
:1057300000BD45AB6A469DF81011022004F0B4F894
:1057400018B16946022002F053FE44A8FFF724FC7A
:105750000028EED149B000BD70B5224C84B00020C5
:1057600094ED030A03253226BCEEC00A092310EE8D
:10577000101A94ED040A8DF808100190BCEEC00ACE
:105780008DF80C50002110EE102A00968DF809209B
:105790008DF80A008DF80B0001AAFFF751FC94ED7B
:1057A000030A4FF0000C0220BCEEC00A092310EEE1
:1057B000102A94ED040A8DF80820CDF804C0BCEE40
:1057C000C00A8DF80C5001AA10EE101A00968DF840
:1057D00009108DF80AC08DF80BC06146FFF730FC48
:1057E00004B070BD0CFE01202DE9FF4F0D462DEDDC
:1057F000040B04462DED088BE3B0B0EE608AF0EEAA
:10580000408AFE4E032196ED0D0AF1EE400AFDEEB0
:10581000E00A10EE900AFDEEC00A07B210EE900A00
:10582000F7EE000A00B230EE200A1490C01B04907C
:1058300001EB4000FCEEC00A80B2129010EE900A1C
:1058400081B21A91D6ED0B0A30EEC00AF2EE000AD0
:1058500030EE600ABCEEC00A10EE100A80B215905D
:10586000401AE74981FB00104110A1EBE070401C99
:1058700080B2269012984FEA4008404603F02EFF6F
:105880001090404603F02AFFDFEDDE1A1990002049
:1058900029901298F0EE612A0021B0B11098199A5F
:1058A000801E129B921E13F0010F03D020F8021FDE
:1058B00022F8021F129B5B0807D04180518020F81C
:1058C000041F22F8041F5B1EF7D11A98159A169030
:1058D00090423CBF78B2609080F09B8515991A98F1
:1058E000884280F059831699891C4E91C349831CC4
:1058F00091ED0B1ABCEEC11A11EE102A96B24E9A17
:1059000002FB063292B202EB060CA35854F80C804C
:1059100073FB08F702EB460354F8039078FB097712
:1059200006EB4606164454F8068079FB0879A75D15
:1059300014F8028014F803A047EA086714F80C80F2
:10594000A4444FEA084848EA0A2847EA08083719F1
:10595000A61897F801A0727823444AEA02629CF8DC
:1059600001A093F801B04FEA0A4A4AEA0B2A42EA38
:105970000A0297F802A096F802B093F802E04AEA09
:105980000B6A9CF802B09CF803C0FF78F678DB78CD
:105990004FEA0B4B4FEA0C4C4BEA0E2B47EA0666DC
:1059A0004CEA03234AEA0B0A334378FB029C72FB5E
:1059B0000AC27AFB032202EE102A91ED1D3AB8EEDC
:1059C000422AB4EEC23AF1EE10FA00F3DE8200236E
:1059D000279305936099149B4FF0FF3201918B42FE
:1059E0007DDB019B1699609E19441B9114998E4290
:1059F00076DC81191FFA81F81B99169B8FB211EE84
:105A0000101A89B203FB01031FFA83FC07FB018311
:105A10009BB254F80C7055F8038077FB08F704EB41
:105A20000C0805EB0309D8F80480D9F8049078FB3A
:105A300009790CEB01085F1854F808A055F807B075
:105A40007AFB0B99A0442F44D8F804807F6878FB38
:105A500007980CEB410903EB410754F809A055F8EE
:105A600007B07AFB0B88A1442F44D9F804907F68D3
:105A700079FB078801EB410707EB0C0907EB030BE8
:105A800054F809A055F80BE07AFB0E88A1440BEB03
:105A9000050AD9F80490DAF804A079FB0A880CEB1F
:105AA000810903EB810B54F809A055F80BE07AFB50
:105AB0000E88A1440BEB050AD9F80490DAF804A08B
:105AC00079FB0A8801EB810A0AEB0C099A4454F825
:105AD00009B055F80AE07BFB0E88A14401E03CE0E8
