:020000040800F2
:1000000048F90020A10100087B1400085D140008D5
:1000100079140008C10B00082D2B00080000000017
:100020000000000000000000000000004126000861
:10003000891000080000000005150008FD260008D2
:10004000BB010008BB010008BB010008BB010008A0
:10005000BB010008BB010008BB010008BB01000890
:10006000BB010008BB010008BB010008BB01000880
:10007000BB010008BB010008250E0008390E00086E
:10008000BB0100084D0E0008BB010008BB010008C1
:10009000BB010008BB010008BB010008BB01000850
:1000A000BB010008BB010008BB010008BB01000840
:1000B000BB010008BB010008BB010008BB01000830
:1000C000BB010008BB010008BB010008BB01000820
:1000D000BB010008BD290008D1290008E529000856
:1000E000BB010008BB010008BB010008BB01000800
:1000F000BB010008BB010008BB010008BB010008F0
:10010000BB010008C9170008BB010008BB010008BB
:10011000A9290008BB010008BB010008BB010008B9
:10012000BB010008BB010008BB010008610E00080C
:10013000BB010008BB010008BB010008BB010008AF
:10014000BB010008BB010008BB010008BB0100089F
:10015000BB010008BB010008650E0008BB010008D8
:10016000BB010008BB010008BB010008BB0100087F
:10017000BB010008BB010008BB010008BB0100086F
:10018000BB010008BB010008DFF810D000F038FB0D
:1001900000F070F900480047E978000848F90020AD
:1001A0000648804706480047FEE7FEE7FEE7FEE711
:1001B000FEE7FEE7FEE7FEE7FEE7FEE71927000899
:1001C000890100082DE9F0410024061B254671F144
:1001D000000605DA01240027D0EB070067EB0101D8
:1001E000161E73F1000605DA0027D2EB070201257F
:1001F00067EB030300F054FA86460E4617469C460A
:10020000AC4204D00025D0EB050E65EB010624B10D
:100210000020D2EB000760EB030C704631463A46F3
:100220006346BDE8F08140EA01039B0703D009E083
:1002300008C9121F08C0042AFAD203E011F8013BD2
:1002400000F8013B521EF9D27047D2B201E000F82B
:10025000012B491EFBD270470022F6E710B513466A
:100260000A4604461946FFF7F0FF204610BD30B598
:1002700005462A460B4612F8010B13F8014B08B14C
:10028000A042F8D01CB1002802D06D1CF1E728462E
:1002900030BD10B5044604E00B7800F8013B03B113
:1002A000491C521EF8D2204610BD421C10F8011BFA
:1002B0000029FBD1801A704730B504460020034660
:1002C00000E05B1C934203D2E05CCD5C401BF8D0A5
:1002D00030BD30B505460020034600E05B1C93426C
:1002E00005D2EC5CC85C201A01D1002CF6D130BDDF
:1002F0000FB400B58DB010A909900B9000914FF08C
:10030000FF300A9000200C900548069005480790A1
:100310006A4609A80F9900F009FA0DB05DF814FBC0
:1003200049070008670700082DE9FF5F1D464FF0E9
:10033000FF3BD5E9014691465F464FF00008A969A9
:100340007F1C01988847296A824688470028F6D191
:10035000BAF1FF3F0CD024F4C064002E19DD600612
:1003600014D5BAF12B0F09D0BAF12D0F0ED103E03D
:10037000584604B0BDE8F09F44F48064A9697F1C2E
:1003800001988847761E8246002E02DDBAF1300FB2
:1003900003D0B9F1000F26D032E0A969761E44F4EB
:1003A00000747F1C019888478246002E05DDBAF153
:1003B000780F06D0BAF1580F03D0B9F1000F10D062
:1003C0001EE0B9F1000F02D0B9F1100F18D1A969E0
:1003D000761E24F400747F1C019888478246102002
:1003E00002E0082000E00A20814609E008FB090835
:1003F000A969761E44F400747F1C019888478246E0
:10040000002E05DD4946504600F07BF90028EDDA64
:10041000E96901988847A00502D46FF00100A8E7B8
:10042000E00725D1600613D5600502D5C8F10000AC
:1004300000E0404629680A1D2A600968220501D5A6
:10044000087015E0220701D5088011E008600FE070
:100450002868011D29600068210502D580F8008008
:1004600006E0210702D5A0F8008001E0C0F8008076
:1004700038467EE770B5054C054D03E02068204402
:100480008047241DAC42F9D170BD0000BC7E00083D
:10049000C87E0008F0B480EA0102D40F4200B2EB3B
:1004A000410F02D20246084611464A0042D0C30D0F
:1004B000DDB2C1F3C752AD1A202D35DAC1F31601F2
:1004C00041F4000204B15242C5F1200602FA06F1DD
:1004D0002A411044B3EBD05F23D0C4B1012DA0EB6F
:1004E000C35009DCF0BC4FF0004202EAC352DBB259
:1004F00000F5000000F056B9400000F1807000EBFC
:10050000C350A0F1807040EAD170490009E0490869
:1005100041EAC071A0EBC35000F50000400800EBB9
:10052000C350F0BC00F035B96142012202EB410139
:10053000001BF6E7F0BC704781F00041AAE780F0AD
:100540000040A7E780EA010210B502F00043400036
:1005500022D04A001FD0010E01EB1261C0F35600F9
:10056000C2F3560240F4000042F40002A0FB022055
:1005700000047F39140400D0401C50EA124001D41A
:100580004000491EC2B20C0604EBD010401C4008CB
:10059000802A02D003E0002010BD20F001000029D5
:1005A00000DA0020184310BDC10F80EAE070084453
:1005B000CA079623002100F0F5B8962300221146C1
:1005C00000F0F0B8F0B4CA17CB0F50405140C61835
:1005D00041F100054FEAC372314628004FF09603FF
:1005E00003D0B623F0BC00F0DDB830460021F9E7B7
:1005F00000F0004220F00040C10DC0F3160040F4AE
:1006000000007F2901DA00207047962903DCC1F140
:100610009601C84001E096398840002AF4D0404253
:10062000704720F00040C10DC0F3160040F40000F8
:100630007F2901DA00207047962903DCC1F1960179
:10064000C84070479639884070470000002801DB99
:10065000C0F10040002901DBC1F100418142704737
:10066000002801DBC0F10040002901DBC1F100419D
:100670008842704730B50B460146002020220124F5
:1006800009E021FA02F59D4205D303FA02F5491B60
:1006900004FA02F52844151EA2F10102F1DC30BD76
:1006A0002DE9F05F0546002092469B4688460646A7
:1006B000814640241BE0284641464746224600F03A
:1006C000C0F853465A46C01A914110D311461846F5
:1006D000224600F0A7F82D1A67EB01084F46224684
:1006E0000120002100F09EF817EB00094E41201E6A
:1006F000A4F10104DFDC484631462A464346BDE802
:10070000F09F3A2800D2303820F02002412A01D34D
:10071000A2F13700884201D34FF0FF30704700004C
:10072000026811441378016018467047D16004498B
:1007300051610449116200211161114600F096B81F
:100740002107000863080008426842B1016811F8F7
:10075000013B23B1521EC0E9001218467047012127
:10076000C160881E704742685AB1C368016843B9C6
:1007700083688B4205D0491E521CC0E9001200203C
:1007800070474FF0FF30704700487047F40000207A
:1007900070470029A8BF7047401C490008BF20F0DF
:1007A0000100704710B4B0FA80FC00FA0CF050EA77
:1007B000010404BF10BC704749B1CCF1200421FAF8
:1007C00004F411FA0CF118BF012121430843A3EBF3
:1007D0000C01CB1D4FEA00614FEA102042BF002000
:1007E00010BC704700EBC35010440029A4BF10BCDC
:1007F0007047401C490008BF20F0010010BC704742
:10080000064C074D06E0E06840F0010394E807005D
:1008100098471034AC42F6D3FFF7BAFC9C7E000830
:10082000BC7E0008202A04DB203A00FA02F10020F6
:1008300070479140C2F1200320FA03F3194390401E
:100840007047202A04DB203A21FA02F00021704789
:1008500021FA02F3D040C2F1200291400843194628
:100860007047C0B24FF4F05100F096B92DE9F34F44
:100870008BB04FF0000801F10C000C464FF0010B5B
:1008800046460DF1080A01906269012101989047DE
:1008900005002DD0252D2CD0216A8847C0B1626972
:1008A000012101989047216A88470028F7D1411E0D
:1008B00062690198904700E0761CA1690B9888470F
:1008C000216A88470028F7D1E1690B988847DBE760
:1008D000A1690B9888470746A84201D1761CD3E747
:1008E000E1690B9888477F1C02D1B8F1000F6FD0E7
:1008F00046E1002762693D463946019890472A281B
:1009000004D162690121019890470125DFF88492A2
:100910006269012101989047A0F130010A290AD2A9
:100920004F45E5DC07EB870100EB4107303FDFD4A3
:1009300045F01005ECE7E90601D46FF000476C289C
:100940000AD04C2814D0682815D06A280DD07428F5
:100950001CD07A281AD01DE06269012101989047C5
:100960006C2802D045F0040514E045F002050DE0C6
:1009700045F020050AE06269012101989047682846
:1009800002D045F0080505E045F4006562690121E3
:1009900001989047C4E9015765283DD019DC5828D3
:1009A0007AD00CDC452837D004DC252826D0412815
:1009B00031D131E046282FD047282CD12CE05B28BC
:1009C00077D0612828D063287CD0642823D15AE0CE
:1009D000D0E06F2848D008DC66281DD067281BD0DF
:1009E000692821D06E2816D127E0702845D07328B9
:1009F00068D0752847D078280DD14DE0A1690B98B3
:100A00008847054625283FF469AFE1690B98884778
:100A10006D1C3FF46AAFB3E023466A466FF00100F5
:100A20000B99AFF300809EE045F040006060A8079E
:100A300023464FF0000236D43EE0E8077FF447AF8C
:100A40002068011D21600068290501D506701BE79B
:100A5000290701D5068017E7A90703D5F117C0E9D3
:100A6000006111E706600FE745F040006060A807ED
:100A700023464FF0080216D41EE040F60E0125EA88
:100A80000100606016E045F040006060A807234662
:100A90004FF00A0207D40FE045F040006060A8075D
:100AA00008D5234610226FF001000B99AFF30080A8
:100AB00059E007E0234610226FF001000B99FFF781
:100AC00033FC50E04FF000094F464B46632802D0FC
:100AD0005B2806D040E0E80601D40120A060012791
:100AE0003AE062690121019890475E2805D14FF0F4
:100AF00001096269494601989047216939B9002185
:100B00000A46534643F82120491C0829FADBB0B3B2
:100B1000216969B9C11700EBD16253110AEB830156
:100B200022F01F02821A01200B68904003430B60E1
:100B300062690121019890475D28E8D1B9F1000F61
:100B400009D00020514651F82020D24341F82020FE
:100B5000401C0828F7DB02AB224600976FF001002B
:100B60000B99AFF3008000280CDA401C08D1BBF1D0
:100B7000000F05D04FF0FF300DB0BDE8F08FFFE75C
:100B80004046F9E7E90701D108F1010806444FF0B2
:100B9000000B79E6CCCCCC0C7F2801D9002208E0F0
:100BA000064A02EB5002C007127800D1120902F087
:100BB0000F0201209040084070470000AC7D000803
:100BC000FEE770B500254FF4803400E0641E24B1C8
:100BD000802000F0D3FD0028F8D02CB140F2FF5067
:100BE00000F08AFD284670BD032070BD70B5054633
:100BF00000243B49086800E0086810F0450FFBD06E
:100C0000410705D50324042000F076FD204670BD81
:100C1000C00705D00124012000F06EFD204670BD04
:100C200000F0A6FDA84201D0102070BD40F2FF5098
:100C300000F062FD002000F0BDFD2A49084201D10C
:100C4000204670BD002801DA1C2070BD410001D58E
:100C5000092070BD810001D50A2070BDC10001D5F9
:100C60000B2070BD010101D50C2070BD410101D5E3
:100C70000D2070BDC10101D50E2070BD010201D54E
:100C80000F2070BD410201D5102070BD810201D539
:100C9000112070BDC10201D5122070BD010301D524
:100CA000132070BD410301D5142070BD810301D50F
:100CB000152070BDC10301D5162070BD010401D5FA
:100CC000172070BD410401D5182070BD810401D5E5
:100CD000192070BD000701D51A2070BD204670BDD7
:100CE000342C014008E0FFFD10B500240E4A1168C5
:100CF00000E0116811F0450FFBD0480705D503242B
:100D0000042000F0F9FC204610BDC80705D00124DE
:100D1000012000F0F1FC204610BD40F2FF5000F031
:100D2000EBFC204610BD0000342C014010B500241F
:100D30000A4A116800E0116811F0450FFBD048071E
:100D400005D50324042000F0D7FC204610BD40F256
:100D5000FF5000F0D1FC204610BD0000342C0140B3
:100D600070B506460C4600251C4A106800E0106865
:100D700010F0450FFBD0410705D50324042000F0F7
:100D8000BBFC204670BDC00705D00124012000F047
:100D9000B3FC204670BD00F0EBFCB04201D0102047
:100DA00070BD40F2FF5000F0A7FC002000F002FDF3
:100DB00010F4604F03D0810405D5132070BD000CE2
:100DC0002080284670BD410401D5102070BD00046C
:100DD00001D50F2070BD284670BD0000342C0140A5
:100DE00010B500204FF480310D4B1A6801E0491E08
:100DF0001A6812F0450F01D10029F8D109B1510745
:100E000005D50324042000F077FC204610BD5106D0
:100E1000FCD50024402000F06FFC204610BD0000EF
:100E2000342C014003488068002801D004F046BFFC
:100E300070470000F80000200348C068002801D077
:100E400004F056BF70470000F800002003484068D7
:100E5000002801D004F066BF70470000F8000020B1
:100E600001F018B903480068002801D004F074BFED
:100E700070470000F8000020074A904201D207485E
:100E800001E005481038064A8B0001EA020101D54D
:100E9000C16070478160704710640240006002408A
:100EA0007D0F7D0F002904D0016841F00101016030
:100EB0007047016821F00101016070472DE9F0439E
:100EC000016821F001010160002101604160816041
:100ED000C1600161212141613E493E4A10394FF014
:100EE0003D08904203D1C1F80880BDE8F083394A3B
:100EF0004FF474651832904201D18D60F5E7354AA0
:100F00004FF474163032904201D18E60EDE7314AD1
:100F10004FF074674832904201D18F60E5E72D4B66
:100F20002D4A6033984201D1CA60DEE7294C2B4B31
:100F30007834A04201D1CB60D7E7DFF898C0284CC5
:100F40000CF1900C604501D1CC60CEE7DFF88490C5
:100F50004FF03D5C09F1A809484502D1C1F80CC029
:100F6000C3E72049DFF87C900839484502D1C1F831
:100F70000080BAE7DFF86C8008F11808404501D11D
:100F80000D60B2E7174D3035A84201D10E60ACE7D5
:100F9000144D4835A84201D10F60A6E7114D114903
:100FA0006035091FA84201D10A609EE70D4A7832D8
:100FB000904201D10B6098E70A4A9032904201D1E9
:100FC0000C6092E7074AA83290428ED1C1F800C067
:100FD0008BE70000106002403D000020400F002021
:100FE00000003D2010640240002904D0016841F057
:100FF000200101607047016821F020010160704705
:101000000B0609D522B1436943F08003436103E035
:10101000436923F080034361802905D001F01E015C
:101020001AB102680A430260704702688A4302608C
:101030007047000030B50368124A1340CC680A6854
:101040002243D1E905452C432243CC6922430C6A53
:1010500022434C6A22438C6A22434C6B22438C6BA2
:1010600022431A430260426922F00703D1E90B24AC
:1010700022431A4342610A6942604A688260896871
:10108000C16030BD3F801CF07047000070B506465F
:101090000025002905D0012927D0022928D04FF4A6
:1010A000407500F0B9F809281ED1134C206820F4CF
:1010B00040702060206828432060206820F0F800FD
:1010C0002060206846F0020108432060206840F458
:1010D0008030206000F0A0F8216821F0020121603A
:1010E000216821F0F801216070BD4FF48075D8E7C8
:1010F0004FF40075D5E70000103C024009200C4970
:101100000A68D20301D5012070470A68D20601D5CA
:10111000062070470A68D20501D5022070470A6888
:1011200012F0E00FFAD109688907F7D50820704757
:101130000C3C02400248016841F0004101607047E8
:10114000103C0240002003490978AA2900D0012060
:1011500070470000153C02400348017841F002014D
:10116000017000F059B80000143C024002480168C8
:1011700041F0010101607047143C024010B5044683
:1011800000F04AF8092801D10148047010BD0000A0
:10119000153C024005480068C00705D003480449D3
:1011A0000C3801600349016070470000143C0240A4
:1011B0003B2A19087F6E5D4C70B505460E4600F05F
:1011C0002BF8092813D10A4C206820F440702060C5
:1011D000206840F400702060206840F0010020602A
:1011E0002E6000F019F8216821F00101216070BD26
:1011F000103C024005480068002805DA034804490D
:101200000C3801600349016070470000103C024047
:1012100023016745AB89EFCD08B509200090FFF7A2
:101220006DFF009002E0FFF769FF00909DF800005D
:101230000128F8D09DF8000008BD00002DE9FC470A
:101240000E460024002700970197574D4FF0080ADB
:10125000C5F800A0102068604FF04009C5F808905C
:10126000EF604FF48068C5F81080284600F0D8FA87
:101270001020FFF7BBFC002832D14C480089000445
:10128000286037206860C5F80890EF60C5F81080C6
:10129000284600F0C5FA3720FFF7A8FC00281FD128
:1012A000411E05F114000160C0F804A030218160E6
:1012B0000221C16007610121416100F035FA2F6010
:1012C00033206860C5F80890EF60C5F810802846A4
:1012D00000F0A6FA3320FFF789FC0546280001D06C
:1012E000BDE8FC874FF4001A6F46DFF8C48040F277
:1012F0002A6908E0504600F041FA20B100F08AFA6D
:1013000047F82400641CD8F8000010EA090FF1D057
:10131000082000F033FA20B1082000F0EDF9042095
:10132000DEE7022000F02AFA20B1022000F0E4F902
:101330000220D5E7202000F021FA20B1202000F083
:10134000DBF90620CCE74FF40074204600F016FAD3
:1013500020B1204600F0D0F90720C1E740F2FF504D
:1013600000F0CAF900980099000601F47F4140EAB4
:101370000120009901F47F0140EA1120009940EA20
:101380001160706001980199000601F47F4140EA04
:101390000120019901F47F0140EA1120019940EAFE
:1013A0001160306028469BE718590020D0000020CB
:1013B000342C01402DE9F041002201274FF0030CAD
:1013C00007FA02F50B682B40AB422BD1066853009D
:1013D00091F804800CFA03F4A64308FA03F846EAED
:1013E000080606600E79012E01D0022E12D1866801
:1013F000A64386604E79D0F808809E4046EA0806EB
:1014000086604668AE43466045688E799640B6B2BF
:1014100035434560C568A543C560CC799C40C36829
:101420001C43C460521C102ACAD3BDE8F08110B519
:101430004B07DB0E9A40C90800EB8100016A0F24BC
:101440009C40A1430162016A1143016210BD024642
:10145000002012690A4200D0012070470448016848
:10146000044A01F4E06111430160BFF34F8FFEE7CE
:101470000CED00E00400FA05FEE7704730B50F23DD
:10148000C27801250178002A1FD0154A126802F49B
:10149000E062C2F5E062C2F30722C2F10404D34065
:1014A0004278A24084781C401443220101F1E021DB
:1014B00081F80024007800F01F018D404009800071
:1014C00000F1E020C0F8005130BD01F01F00854060
:1014D0004809800000F1E020C0F8805130BD0000D4
:1014E0000CED00E002490843024908607047000023
:1014F0000000FA050CED00E00149086270470000A9
:1015000000000E4270470000054A002903D0116810
:1015100001431160704711688143116070470000FA
:1015200030380240054A002903D011680143116098
:1015300070471168814311607047000040380240D5
:10154000054A002903D011680143116070471168F2
:10155000814311607047000044380240054A002969
:1015600003D0116801431160704711688143116015
:10157000704700002438024070B5244B196801F010
:101580000C01234C00291ED0661004291DD0082907
:101590001DD00460196801F0F00109091D4A545C6E
:1015A0000168E14041601C6804F4E054A40A145D41
:1015B00021FA04F484601B6803F460435B0BD25C83
:1015C000D140C16070BD0460E4E70660E2E70F4A05
:1015D000121F1168C1F38055116801F03F0135B148
:1015E000B6FBF1F11468C4F38814614305E0B4FB61
:1015F000F1F11468C4F3881461431268C2F3014224
:10160000521C5200B1FBF2F10160C3E708380240FE
:101610000024F400140000202DE9FC4706460024B5
:1016200000940194002000F0C5F8800102D50E203E
:10163000BDE8FC872E4D6946288980B2FFF7FEFD84
:101640000028F5D137202B4F4FF0060A4FF0400904
:101650004FF48068012E22D00199C90345D529890C
:10166000090439607860C7F80890FC60C7F81080FA
:10167000384600F0D5F83720FFF7B8FA0028D7D160
:101680003C60C7F804A0C7F80890FC60C7F8108059
:10169000384600F0C5F80620FFF7A8FAC8E7019918
:1016A000490320D52989090439607860C7F8089072
:1016B000FC60C7F810800F4800F0B2F83720FFF741
:1016C00095FA0028B4D102203860C7F804A0C7F802
:1016D0000890FC60C7F81080064800F0A1F80620CA
:1016E000FFF784FAA4E72520A2E72520A0E7000061
:1016F000D000002018590020014908607047000000
:10170000382C01400149086070470000382C014026
:101710000149086070470000A08025420149086027
:10172000704700008C85254210B50A4A0168116097
:10173000121D41681160141D216821F0F701D0E9E4
:1017400002231A43D0E9043003431A430A432260B8
:1017500010BD0000242C014010B50121CC02204610
:10176000FFF7FCFE2046BDE810400021FFF7F6BE63
:1017700001480068C0B27047102C014001460020AB
:10178000024A12680A4200D001207047342C0140FE
:1017900001460020024A12680A4200D00120704728
:1017A000342C01400248006800F00300704700003C
:1017B000002C014008B503490844009000980068D7
:1017C00008BD0000142C014000F078BC054A002937
:1017D00003D01168014311607047116881431160A3
:1017E000704700003C2C014030B5094B196847F6A2
:1017F000FF629143027D8468C568224344682C439C
:10180000224304680069224302430A431A6030BD40
:10181000042C01400148006870470000802C014002
:1018200010B5084A01681160141D21686FF30A01A0
:10183000D0E901231A43D0E9033003431A430A4392
:10184000226010BD082C014001490860704700006B
:10185000002C014008B50120009041030448FFF727
:10186000F6FD08B1002000909DF8000008BD0000C2
:10187000001C02402DE9F041014600241C4840684C
:10188000032805D038B1012805D0022803D02DE067
:101890002720BDE8F081B1F5805F0CD04FF40067E0
:1018A0000026144DB94212D10120FFF7B5FE0446BF
:1018B000200002D01AE02720EBE72E752E606E6024
:1018C000AE60EF602E610B48FFF78EFF0EE0002048
:1018D000FFF7A2FE0446200008D12E752E606E6030
:1018E000AE60EE602E610348FFF77EFF2046D0E732
:1018F000D0000020005900202DE9F04397494F689F
:1019000080F856700989A0F85410DFF854C2DCF84A
:1019100000100A0E93090370C2F38303437002F0B0
:10192000030282700A0CC2700A0A02714171DCF86B
:101930000420110E0901C180C2F30741C38843EAA4
:101940001113C38001F00F010172C2F30721CB090B
:101950004372C1F380138372C1F34013C372C1F3A6
:10196000001303730023437364460126D4F80880F0
:10197000002F4FEA1864C8F30745C8F3072904D0BD
:10198000012F02D0022F3AD051E08907090D0161E1
:10199000D1B2026942EA81010161016941EA94110F
:1019A0000161C4F3C201017504F0070141756909C1
:1019B0008175C5F38201C175A907490F01764946B2
:1019C000027E42EAD11202760269521C047EA41CF5
:1019D00006FA04F9A2FB094703FB09774FEAE97508
:1019E00002FB0575027A06FA02F70765A4FB0729D0
:1019F00005FB079504FB0354C0E9122417E0910688
:101A0000890A0161016941EA0421016101692943EF
:101A1000016149460269521C43F10004E40444EAAE
:101A20005234D204C0E912244FF4007202651C3013
:101A3000C1F3801200F8032C8906490E00F8021C3D
:101A400008F0FF0110F8022C42EAD11200F8022C33
:101A500001F07F0100F8011CDCF80C20110ECC090C
:101A60000470C1F341144470C1F382048470890787
:101A7000090FC170C2F30741C47844EA9114C470DD
:101A8000C1F340140471437101F001018171C2F38B
:101A90000721CC09C471C1F380140472C1F340144E
:101AA0004472C1F300148472C1F38104C47201F062
:101AB00003010173D1B2490841738673284A103279
:101AC00011680C0E04740C0C24024482C1F3072428
:101AD000458A254345820906416151680C0E4569D6
:101AE00045EA04444461C1F30744456945EA0424D6
:101AF0004461C1F307244569254345610176916836
:101B00000C0E44760C0C2406C461C1F30724C5698D
:101B100045EA0444C461C9B2C46944EA0121C1610F
:101B2000D1680A0EC4691443C461C1F3074290F836
:101B3000204044EA121480F820401207120D42841B
:101B4000C1F30722448C14434484C9B2490880F885
:101B5000241080F825601846BDE8F083D0000020EE
:101B60007858002008B500200090FFF773FE012888
:101B700001D0FF2008BD684600F0CCFB08B1FF2073
:101B800008BD0098C0F3432008BD10B5FFF7EAFF79
:101B9000042803D0FF2803D0012010BD002010BD71
:101BA000022010BD38B50024009400F051F9FFF771
:101BB000D3FD00F0ADF900909DF8000010B19DF844
:101BC000000038BD00F02EF800909DF8000010B124
:101BD0009DF8000038BD12480475046044608460BC
:101BE000C4600461FFF700FE0D485838FFF784FE1B
:101BF00000909DF8000040B9094800215838B0F81D
:101C00005400000400F070FB00909DF8000020B923
:101C10004FF40060FFF72EFE00909DF8000038BDE5
:101C2000005900202DE9F84F002401200090FFF713
:101C3000B9FDE0B1DFF8FC8000263F4DD8F8040084
:101C40004FF0C0094FF4806704282AD02E6002208C
:101C50006860C5F80890EE602F612846FFF7E0FD48
:101C6000FFF742F80446200003D0BDE8F88F252096
:101C7000FBE70020FFF79EFDDFF8BCA0AAF1900A69
:101C8000CAF800000420FFF795FDCAF804000820F8
:101C9000FFF790FDCAF808000C20FFF78BFDCAF88B
:101CA0000C00D8F8040028B1012803D0062801D080
:101CB000022811D12E60032068604020A860EE60E9
:101CC0002F611D48FFF7ACFD69460320FFF748F878
:101CD0000446200000D0C8E7D8F80400042826D025
:101CE000BDF80000C8F808000004286009206860FA
:101CF000C5F80890EE602F610F48FFF791FDFEF7E1
:101D0000F3FF0446200000D0AFE70020FFF752FDAC
:101D1000094DA03D28600420FFF74CFD68600820B5
:101D2000FFF748FDA8600C20FFF744FDE86020465F
:101D30009BE70000D00000201859002070B590B03B
:101D400005460C461D4E4FF0FA513046FFF794F809
:101D500000213046FFF7A6F83046FFF7AFF84FF006
:101D600000600190164802900395002004900594AD
:101D700006903115079189000891890009910A9010
:101D80004FF440300B9004200C9003200D9048023B
:101D90000E9080100F9001A93046FFF74BF90122F9
:101DA00010213046FFF72CF920213046FFF71CF9AF
:101DB00001213046FFF776F810B070BD586402403C
:101DC000802C014070B590B004460D461E4E4FF079
:101DD000FA513046FFF750F800213046FFF762F81D
:101DE0003046FFF76BF84FF0006001901748029003
:101DF000039440200490059500200690311507912A
:101E000089000891890009910A904FF440300B90A5
:101E100004200C9003200D9048020E9080100F902B
:101E200001A93046FFF706F9012210213046FFF7DD
:101E3000E7F820213046FFF7D7F801213046FFF7B9
:101E400031F810B070BD000058640240802C014091
:101E50002DE9FC4101218C20FFF756FB294E0C2275
:101E600008213046FFF7E3FA0C2209213046FFF73C
:101E7000DEFA0C220A213046FFF7D9FA0C220B2198
:101E80003046FFF7D4FA0C2211463046FFF7CFFA5E
:101E90001D4F0C2202213846FFF7C9FA4FF470603B
:101EA000009002218DF805108DF8041000248DF8A3
:101EB000064001258DF8075069463046FFF77AFA4B
:101EC0000420009069463846FFF774FA2803009012
:101ED0008DF8074069463046FFF76CFA68030090BA
:101EE0008DF804408DF8075069460848FFF762FAFC
:101EF0000121C802FFF724FB01218805FFF704FB3D
:101F0000BDE8FC8100080240000C0240001C0240B9
:101F10002DE9F84F00270097BB460024A246002574
:101F2000594876210175076047608760C76007617F
:101F3000FFF75AFC0320FFF787FC0120FFF7E8FBBF
:101F4000514E183637607760B760F7604FF480699C
:101F5000C6F810903046FFF763FCFEF732FE0090A3
:101F60009DF8000018B19DF80000BDE8F88F4FF40F
:101F7000D5703060082070604FF04008C6F80880C7
:101F8000F760C6F8109040481830FFF749FCFEF79C
:101F900027FF00909DF8000018B33760372070606D
:101FA000C6F80880F760C6F8109037481830FFF779
:101FB00037FC3720FEF71AFE00903760372070603C
:101FC000C6F80880F760C6F810902F481830FFF761
:101FD00027FC3720FEF70AFE00909DF8000090B322
:101FE0004FE02A48012141608D07E6E7376037203E
:101FF0007060C6F80880F760C6F810902248183064
:10200000FFF70EFC3720FEF7F1FD00909DF8000071
:1020100010B19DF80000A8E71D4828433060292032
:102020007060C6F80880F760C6F81090164818303F
:10203000FFF7F6FBFEF77AFE00909DF8000018B15E
:102040009DF8000091E706E00020FFF7B3FB834610
:102050004FEADB7A641CBAF1000F03D14FF6FF7030
:102060008442C3D34FF6FF70844204D31B200090F8
:102070009DF8000079E71BF0804F02D00348022151
:1020800041609DF8000070E700590020D00000205A
:10209000000010800748006810F0C05F08D00649B3
:1020A0000120486103484FF0C2515830FEF7E4BEAA
:1020B0007047000000640240D000002070B54FF46B
:1020C00080752846FFF764FB214C38B10020207052
:1020D0002846FFF717FB0120206132E00220FFF7BE
:1020E00057FB28B10220FFF70DFB0220207028E0EB
:1020F0000820FFF74DFB28B10820FFF703FB042061
:1021000020701EE02020FFF743FB28B12020FFF7BE
:10211000F9FA0620207014E01020FFF739FB28B1EF
:102120001020FFF7EFFA052020700AE04FF4007549
:102130002846FFF72DFB20B12846FFF7E3FA0720DA
:10214000207000214CF23A30FFF740FB207870BD40
:10215000D00000202DE9F0478146089E14461D4618
:10216000DFF8A480002788F80070C8F81070C8F85D
:102170000C7026480760012140F22A30FFF726FB49
:102180000120FFF7CBFA31464846FFF7D7FDD8F8D4
:102190000400022803D10602640A44EAC5541C4D17
:1021A0002E60102068604FF04008C5F80880EF608E
:1021B0004FF48069C5F810902846FFF731FB1020D6
:1021C000FEF714FD00281DD1411E05F11400016029
:1021D0004660902181600221C16007610121416157
:1021E000FFF7A2FA2C6011206860C5F80880EF6044
:1021F000C5F810902846FFF713FBBDE8F047112003
:10220000FEF7F4BCBDE8F087D00000202C2C014084
:10221000185900202DE9F05F8346DDE90A6714466E
:102220001D46DFF8B8A04FF000088AF80080CAF811
:1022300010804FF00109CAF80C902948C0F80080BE
:10224000012140F22A30FFF7C1FA07FB06F1584698
:10225000FFF774FD0120FFF761FADAF804000228A5
:1022600003D10602640A44EAC5541E4D2E601020B4
:1022700068604FF0400AC5F808A0C5F80C804FF41C
:10228000806BC5F810B02846FFF7CAFA1020FEF799
:10229000ADFC002820D1411E05F1140001607743F8
:1022A0004760902181600221C160C0F81080C0F8B1
:1022B0001490FFF739FA2C6012206860C5F808A066
:1022C000C5F80C80C5F810B02846FFF7A9FABDE89C
:1022D000F05F1220FEF78ABCBDE8F09FD00000201E
:1022E0002C2C01401859002010B5094A1060072015
:1022F0005060402090600020D0604FF480601061FA
:102300001046FFF78DFABDE810400720FEF76EBCBF
:102310001859002070B50546002D16D00F480089C9
:1023200001040F4801600D214160402181600021BE
:10233000C1604FF480610161FFF772FA0D20FEF772
:1023400055FC04461CB1204670BD262070BD0020FF
:10235000FFF730FA2860204670BD0000D000002052
:102360001859002010B50848002101600C22426075
:1023700040228260C16011010161FFF751FABDE89E
:1023800010400C20FEF732BC185900202DE9F04116
:1023900000256C1E2146154E00E0491E706928B9C3
:1023A000306918B9307808B90029F6D1002777616B
:1023B0000F4800E0641E0168890401D5002CF9D1A2
:1023C000F068012803D1FFF7CDFF0546F7602C43E5
:1023D00000D1042540F2FF50FFF78EF9307810B19C
:1023E0003078BDE8F0812846FBE70000D0000020EF
:1023F000342C01402DE9F04100256C1E2146154E7C
:1024000000E0491E706928B9306918B9307808B9F8
:102410000029F6D1002777610F4800E0641E0168AB
:10242000C90401D5002CF9D1F068012803D1FFF7C8
:1024300099FF0546F7602C4300D1042540F2FF5078
:10244000FFF75AF9307810B13078BDE8F0812846AE
:10245000FBE70000D0000020342C01402DE9F047BC
:102460008146089E14461D46DFF8A880002788F89C
:102470000070C8F81070C8F80C7027480760012178
:1024800040F22A30FFF7A2F931464846FFF79AFC9E
:102490000120FFF743F9D8F80400022803D106020F
:1024A000640A44EAC5541D4D2E60102068604FF048
:1024B0004008C5F80880EF604FF48069C5F81090B7
:1024C0002846FFF7ADF91020FEF790FB00281ED13B
:1024D0002C6018206860C5F80880EF60C5F810907F
:1024E0002846FFF79DF91820FEF780FB00280ED143
:1024F00005F11402401E1060566090209060D76075
:102500001761012050611046FFF70EF93846BDE80B
:10251000F0870000D00000202C2C0140185900202A
:102520002DE9F05F8246DDE90A6714461D46DFF8B3
:1025300004914FF0000889F80080C9F8108001204C
:10254000C9F80C003C48C0F80080012140F22A3054
:10255000FFF73CF907FB06F15046FFF733FC01207B
:10256000FFF7DCF8D9F80400022803D10602640A58
:1025700044EAC554314D2E60102068604FF0400B86
:10258000C5F808B0C5F80C804FF4806AC5F810A0F3
:102590002846FFF745F91020FEF728FB002847D111
:1025A000B9F808000004286037206860C5F808B052
:1025B000C5F80C80C5F810A02846FFF731F9372080
:1025C000FEF714FB002833D12F6017206860C5F890
:1025D00008B0C5F80C80C5F810A02846FFF720F910
:1025E0001720FEF703FB002822D12C601920686019
:1025F000C5F808B0C5F80C80C5F810A02846FFF74C
:102600000FF91920FEF7F2FA002811D105F1140292
:10261000401E10607743576090209060C2F80C8095
:10262000C2F81080012050611046FFF77DF8404647
:10263000BDE8F09FD00000202C2C0140185900204C
:10264000704700000CB500220192009227490868EB
:1026500040F4803008604FF4A043086800F4003074
:1026600000900198401C0190009810B90198984280
:10267000F3D10868800302D50120009000E00092A9
:102680000098012831D119484030026842F0805248
:1026900002601748026842F4404202601348083062
:1026A00002680260026842F400420260026842F47A
:1026B000A0520260021F0F4B13600A6842F0807242
:1026C0000A600A689201FCD50B4A40F2057111605C
:1026D000016821F003010160016841F0020101601D
:1026E0000168C1F381010229FAD10CBD0038024012
:1026F0000070004008544007003C024010B50548F7
:102700000168D0E90232CC1759186241C0E90212BF
:1027100010BD00003000002010B50F48016841F0E6
:10272000010101600C4A00210832116002680B4B64
:102730001A400260031D0A4A1A60026822F48022CD
:10274000026005480C300160FFF77CFF05494FF03F
:102750000060086010BD000000380240FFFFF6FE78
:102760001030002408ED00E0002904D0018841F079
:10277000800101807047018821F08001018070474D
:10278000002904D0018841F00101018070470188CF
:1027900021F001010180704730B5028C22F0010266
:1027A0000284058C8388028B22F0700222F00302DF
:1027B0000C88144325F002028D8915434A882A4368
:1027C0000D4DA84202D00D4DA8420FD122F00805B0
:1027D000CA892A4322F004058A882A4323F4807395
:1027E00023F400730D8A1D434B8A2B43838004839B
:1027F00089684163028430BD00000140000401404B
:10280000028B22F008020A430283704770B5028CE3
:1028100022F010020284028C8388048B24F4E044AA
:1028200024F440760D884FF6FF7404EA05253543FD
:1028300022F020028E8904EA061616434A8804EA2A
:1028400002123243114EB04202D0114EB04217D1A3
:1028500022F08002CE8904EA0616164326F04006CE
:102860008A8804EA0212324323F4806323F400636B
:102870000E8A04EA86061E434B8A04EA8303334326
:102880008380058389688163028470BD00000140F4
:1028900000040140028B22F400624FF6FF7303EA4A
:1028A000012111430183704770B5028C22F48052DC
:1028B0000284058C8288838B23F4E04323F44076E2
:1028C0000C884FF6FF7303EA0424344325F40055C3
:1028D0008E8903EA06362E434D8803EA05353543D3
:1028E000084EB04202D0084EB04205D122F48046D4
:1028F0000A8A03EA821232438280848389680164EF
:10290000058470BD0000014000040140828B22F468
:1029100000624FF6FF7303EA012111438183704780
:1029200041637047816370470164704730B5028826
:10293000164C174DA0420DD0A8420BD0B0F1804FDD
:1029400008D0144B984205D0134B984202D0134B39
:10295000984203D122F070034A881A43104B9842E0
:1029600006D0104B984203D022F440730A891A43D0
:1029700002804A68C2620A880285A04201D0A84249
:1029800001D1897A01860121818230BD0000014098
:10299000000401400004004000080040000C00401A
:1029A00000100040001400400348C068002801D017
:1029B00003F09AB870470000F80000200348006850
:1029C000002801D003F0C0B870470000F8000020D4
:1029D00003484068002801D003F0E6B870470000C3
:1029E000F800002003488068002801D003F00CB9EB
:1029F00070470000F8000020002904D0818941F4CC
:102A0000005181817047818921F400518181704793
:102A1000002A03D0828A0A4382827047828A8A43CC
:102A2000828270470246002012880A4200D00120AC
:102A3000704710B540F66A13C1F3421301F01F044A
:102A40000121A140012B07D0022B07D014303AB14D
:102A500002680A43026010BD0C30F8E71030F6E758
:102A600002688A43026010BD7FB504460D46208A85
:102A700020F44051E88808432082A08941F20C618B
:102A80008843A9882A8911436A8902431143A18195
:102A9000A08A20F44071A8890843A0826846FEF706
:102AA0006BFD1E48844202D01D48844201D1039828
:102AB00000E00298A189090408D500EBC00101EBF0
:102AC000001029684900B0FBF1F007E000EBC001FD
:102AD00001EB001029688900B0FBF1F06422B0FB23
:102AE000F2F109010B096FF018056B4300EB83004D
:102AF000A3891D044FF0320307D503EBC000B0FBE0
:102B0000F2F000F00700084306E003EB0010B0FB12
:102B1000F2F000F00F00084320817FBD001001405B
:102B2000001401408088C0F308007047FEE70000F1
:102B30002DE9FC41074608980D4690461E46411C6B
:102B400001D11748406800F01FFE04460BE0082240
:102B50006946204600F0DEFD0198401C08D0201F89
:102B600000F012FE0446002CF1DC0020BDE8FC81E0
:102B70009DF80220394604F1080000F0CBFD2860E2
:102B80009DF802009DF80320C01C20F003002044A3
:102B90000830414600F0BEFD3060201FE6E700002F
:102BA000480000202DE9FF41074600F037FE384D70
:102BB000E8600168896888472861E86801684968B1
:102BC00088470446E86801688968884794FBF0F004
:102BD0006861E86801688968884701466869401E3D
:102BE0004143A96108202860E868016809688847AE
:102BF000002000266E6012E0082202A9204600F0A4
:102C000089FD9DF80B00C01C20F0030001199DF800
:102C10000A00C01C20F0030008440C30686000F07B
:102C20000DFD041EE8DA68687F1E07422BD10024E0
:102C300007E0286904FB00F1E8680268D268904761
:102C4000641C68698442F4DB0396124CD4E90201E7
:102C5000CDE90101E868042301AA01680E69002199
:102C6000B047E868042303AA01680E690821B04749
:102C700020680090E86804236A4601680C690C210A
:102C8000A0471020686004B00020BDE8F08100007B
:102C900048000020087D00082DE9FC5F80460C9F5D
:102CA0000D4691469A46264E706800F06DFD04462A
:102CB0003068854226DD6FF00100BDE8FC9F0822E8
:102CC0006946204600F026FD9DF80200A84215D175
:102CD0000198401C12D1306804F044FE83462A4615
:102CE000594604F1080000F015FD2A4641465846B1
:102CF000FDF7E2FA58B1584604F0F2FC201F00F04C
:102D000043FD0446002CDADC4FF0FF30D5E79DF898
:102D10000310504600F0D6FD05469DF802002A46F5
:102D2000C01C20F0030020440830494600F0F2FCAB
:102D300007B13D60584604F0D3FC0020BDE7000019
:102D4000480000200160704741F4807141F2210287
:102D500040004900CB0500D5401CC30300D55040BE
:102D6000CB03F5D580B2704730B59BB004466421E3
:102D700002A8FDF771FA2068642202A9436920467F
:102D80009847002877DD3DA102A803F018FB02ADAB
:102D9000A8420ED12068082239A1836820469847AE
:102DA0003A48006801684A683949904700F0F0FDE8
:102DB00061E038A102A803F002FBA84210D100F0A4
:102DC0001FFC30B12068072234A183682046984751
:102DD00051E020680B2233A18368204698474AE0DF
:102DE00033A102A803F0EBFAA84224D100200190FD
:102DF00000906B4601AA30A1E81DFDF779FA022880
:102E000008D1019900982E4A126811602C490831A6
:102E10000968086000F0F4FB30B1206807221FA1A8
:102E200083682046984726E020680B221DA183680E
:102E3000204698471FE023A102A803F0C0FAA84249
:102E400003D1204600F0CAFD15E020A102A803F03E
:102E5000B6FAA84203D1204600F044F80BE01CA1CA
:102E600002A803F0ACFAA84205D120680B221AA1EF
:102E70008368204698471BB0002030BD72756E00F5
:102E800072756E6E696E670A000000002C000020EB
:102E900000004843636865636B00000043524320B1
:102EA0004F4B0A00435243204641494C45440A00D7
:102EB000726F6D6372632C0025642C25780000000E
:102EC000740000206572617365000000726F6D0010
:102ED00068656C6C6F000000626F6F746C6F61648A
:102EE00065720A0000B5ADF2344D0146684602F045
:102EF00083F9124901600021C0F82814491EC0F866
:102F00002C14FEF777F9684601F092FF032801D0F0
:102F10000228F8D1DDF82C04401C06D00848DDF862
:102F20002C14FEF749F9FEF777F9FEF703F9684626
:102F300002F072F90DF2344D00BD0000F47D00087E
:102F4000008000082DE9FE4F8246DDF8309088466B
:102F500093461E4608F10300C11700EB917020F064
:102F60000304F01CC11700EB917020F003054146EB
:102F7000504600F001FA002803DA6FF00200BDE8C5
:102F8000FE8F00F0AFFB6719B84201DA00F03CFA9F
:102F9000274A1068844204DC00F0A4FB2919884207
:102FA00002DA6FF00100EAE72248D0E90413CDE924
:102FB00001138DF806808DF8076040680090ADF829
:102FC0000070D06817460423016801AAD1F810C028
:102FD0007968E0477968083179600028CFDBF868C4
:102FE00043460268D2F810C05246E047796821444F
:102FF00079600028C3DBF8683346026814695A46D2
:10300000A0477968294479600028B8DBF868042370
:10301000026814696A46A0477968091D796000282A
:10302000ADDBB9F1000F01D0C9F800600020A6E7C0
:1030300048000020087D00082DE9F05FADF5A45D93
:10304000002003F0FEFD0022C0A10DF64C4003F06D
:1030500077FF0DF585660322BDA1304603F096FF8C
:1030600028B14FF0FF300DF5A45DBDE8F09FDDF80D
:103070003404082805D8304603F098FE6FF00100AC
:10308000F1E70024CDF82444CDF82044CDF81844CD
:10309000CDF81C44DDF83474083F3946304603F05F
:1030A00094FE0DF224452B4604220DF58361304633
:1030B00004F014F82B460422291F304604F00EF8C1
:1030C0009DF8180459280BD19DF81904412807D1FF
:1030D0009DF81A04502803D19DF81B04202805D020
:1030E000304603F063FE6FF00200BCE74FF00008CB
:1030F0009BA10868CDF814049AA00168CDF81014BB
:103100000021304603F061FE039403AC2B460422F9
:103110002146304603F0E2FF042221460DF214401E
:10312000FDF7CAF820B9381F800501D14FF001081A
:103130004FF4806B0DF11009B8F1000F32D0A7F5F4
:103140008061304603F041FE2B465A4649463046E0
:1031500003F0C4FF28B1304603F028FE6FF00300EF
:1031600081E7002406E009EB04010A467E4800F0EE
:10317000EDFC1034DDF824048442F4D37B4C049835
:10318000206005980390A7F204427949002000F0DE
:10319000B5FB2168884215D1304603F007FE6FF079
:1031A000040060E772493A46091F002000F0A6FBC0
:1031B000DDF82014884205D1304603F0F7FD6FF0AA
:1031C000040050E74FF0000A3C460021304603F06F
:1031D000FCFD1AE05A46944200D822460DF22443E0
:1031E0004946304603F07AFF28B1304603F0DEFD51
:1031F0006FF0030037E749465046DDF8242400F01D
:103200007DFB8246DDF82404241A002CE2DCDDF884
:103210002004504502D06FF0040024E7554800F028
:10322000DDFB3D1F0421304603F0CFFD504EFDF77E
:10323000E1FF00234D481A461946083002F0DCF938
:1032400062E05C4621464846FDF706F8A54200D8F4
:103250002C460DF2244322464946181D03F03EFF3A
:1032600030B10DF5856003F0A1FD6FF00500FAE6C1
:10327000B8F1000F10D0DDF82404854246D00024B8
:1032800006E009EB04010A46374800F05FFC103401
:10329000DDF824048442F4D3DDF824042D1A00243C
:1032A00005E059F804103019FDF786FF241DDDF8FC
:1032B00024048442F5D3DDF8240406444FF420505E
:1032C000B5FBF0F0052190FBF1F290FBF1F401FB6E
:1032D000120290FBF1FC02EB420301FB1404234AAF
:1032E00001FB1C001C3204EB440400EB400002EB29
:1032F000840452F8201002EB830364681B489B6827
:103300002246083002F078F9002D9ADC184803991B
:10331000001FFDF751FFFDF70DFF14480C3000684A
:103320000760124814300068C0F800A0FDF762FF83
:103330000E480C3002F0CAF80C48143002F0C6F8FF
:103340000DF5856003F032FD00208CE600000000E2
:103350006669726D776172652E7961700000000098
:1033600085A3A385C0410120545600206800002099
:1033700004800008585100202DE9FE4307460D4601
:10338000204E706800F000FA04463068854226DD61
:103390006FF00100BDE8FE83082201A9204600F07D
:1033A000B9F99DF80600A84215D10298401C12D127
:1033B000306804F0D7FA80462A46414604F10800F6
:1033C00000F0A8F92A4639464046FCF775FF50B18F
:1033D000404604F085F9201F00F0D6F90446002C81
:1033E000DADC0020D6E700200090F06804236A466B
:1033F00001680D69211DA8470446404604F070F994
:103400002046C7E7480000202DE9F04FADF20C4DF3
:1034100075A002F0D7FFDFF8E481D8F81410D8F8CF
:103420001000491E4143D8F80C000268D26890474A
:1034300000256C1E4FF4806723E0D8F80C00A90229
:103440003B460268566903AAB047002804DA2046C2
:103450000DF20C4DBDE8F08FD8F81400D8F810101C
:10346000401E484300EB8521D8F80C003B4602681B
:10347000166903AAB047002802DA6FF00100E7E7F7
:103480006D1CD8F81000B5EB902FD6D30120C8F8EA
:1034900008000020D8F80410D8F81020491E91FB2D
:1034A000F2F78246C8F804A06FF0040B72E008221D
:1034B00001A9484600F02EF9002802DA6FF0020058
:1034C000C6E70298401C57D19DF80600C01C20F0AA
:1034D00003019DF80700C01C20F003000A180C32FD
:1034E00003A9484600F016F90546280002D56FF0FA
:1034F0000300ADE7D8F804104A19D8F8100091FB82
:10350000F0F192FBF0F6A14207DD0C4604FB00F15E
:10351000D8F80C000268D2689047A64209DD34460C
:10352000D8F8100004FB00F1D8F80C000268D2684B
:103530009047D8F80C00042303AA01680E69D8F854
:103540000410B047002801DA584681E7D8F8041083
:103550000831C8F80410D8F80C00A5F10803026877
:10356000166905AAB047002801DA584670E7D8F86E
:1035700004100844C8F804009DF80700C01C20F09F
:10358000030000EB09019DF80600C01C20F00300B9
:1035900008440C3000F052F8B0F1000987DAC8F89E
:1035A00008A0D8F80410D8F810000144491E91FB77
:1035B000F0F409E0D8F8100004FB00F1D8F80C0092
:1035C0000268D2689047641CBC42F3DDD8F814103E
:1035D000D8F81000491E4143D8F80C000268D268A0
:1035E0009047002034E700002D2D2D207265736F69
:1035F0007274696E67202D2D2D0A0000480000208E
:1036000010B50C48006802680A4808300068046871
:10361000B2F5806F02D9B2F5402F01D9002010BD5C
:103620000549002000F06AF9A04201D1012010BD37
:10363000002010BD7400002000800008FEB5C117F6
:1036400000EB917020F003044FF0FF36244D40E072
:10365000082201A9204600F05DF8002801DA304672
:10366000FEBDBDF80400A0F50541A33930D19DF899
:103670000600C01C20F0030001199DF80700C01CC3
:1036800020F003000844083000280ADDA9698842B8
:1036900007DA0422694600F03DF8002801DA3046D6
:1036A000FEBDBDF80200A0F52341853910D19DF87B
:1036B0000600C01C20F003019DF80700C01C20F08C
:1036C00003000844BDF80010884201D12046FEBD29
:1036D000241DA8690C388442BAD33046FEBD0000D0
:1036E00048000020024881694068081A0C38704779
:1036F000480000200907090E002806DA00F00F0034
:1037000000F1E02080F8141D704700F1E02080F8FF
:10371000001470472DE9F041044688461646194FBB
:10372000B868002824D000253869844214DA011BC7
:10373000304600F0C7F8054678693969401E00FB3D
:103740000141F8682B46026854694246A0470028A8
:103750000CDB3C69A844761BF86833464246016896
:103760004F692146B847002800DB2844BDE8F081B6
:10377000F8683346424601684D692146AC46BDE8CB
:10378000F041604748000020FEB5C11700EB917082
:1037900020F003044FF0FF3639E00422694620464A
:1037A000FFF7B8FF002801DA3046FEBDBDF8020081
:1037B000A0F52341853929D1BDF80000251A083D1F
:1037C000002D0CDD14488069854208DA082201A921
:1037D0002846FFF79FFF002801DA3046FEBDBDF8FE
:1037E0000400A0F50541A33910D19DF80600C01CC6
:1037F00020F003019DF80700C01C20F003000844DE
:10380000BDF80010884201D12846FEBD241F0C2CB3
:10381000C3D83046FEBD0000480000200C4810B55B
:103820000078C00711D10A4802F02AFE68B14FF4AF
:103830008022084B5110084802F0B6FD074A08499B
:1038400002F0E4FD0248AFF30080034810BD000021
:103850002400002000000C081001002000000008D7
:10386000BD63000804480178002903D000210170DD
:10387000491E4160704700004000002010B5FDF770
:1038800061FC012818D0FDF7B5FCFDF783FC55203D
:10389000FDF774FCFDF760FCFDF768FCFDF74AFCE2
:1038A000BFF34F8F05480168054A01F4E0611143F9
:1038B0000160BFF34F8FFEE710BD00000CED00E08C
:1038C0000400FA0502460846824200DC10467047B2
:1038D00070B504460020651804E014F8011B80B29E
:1038E000FFF732FAAC42F8D380B20021FFF72CFA8E
:1038F000BDE870400021FFF727BA00002DE9F04134
:10390000DFF858C0DCF80430154F002B15D1002427
:10391000144E234608255FEAC37802D086EA530393
:1039200000E05B086D1E002DF5D147F82430641CC3
:10393000FF2CEED90123CCF80430C04307E011F886
:10394000013B4340DBB257F8233083EA1020521E7C
:10395000531CF4D1C043BDE8F08100006800002092
:10396000584D00202083B8ED70B506460D4614462C
:1039700029463046FCF76AFE01D2284670BD214632
:103980003046FCF76DFE01D2204670BD304670BD5A
:1039900010B50E4C20680E490840B0F1005F14D1FC
:1039A0000C4802F04DFA4FF0E020016921F00101CE
:1039B0000161FDF7BFFB6068074A002111602168C3
:1039C00081F30888BDE81040004710BD0080000862
:1039D0000000FE2F5851002050280040F0B593B051
:1039E00005464FF07E54234622462146424801F0C8
:1039F00003FE202241490BA8FCF715FCFDF7FAFB5A
:103A000000203D49091D096808603B490C310968DF
:103A100008603948001D01F059FD37480C3001F0AD
:103A200055FD224636A109A801F0DEFD0998046083
:103A300009A801F04BFDFFF7E7FC082600243EE053
:103A4000052094FBF0F100FB11412B4A01EB4101F1
:103A5000143202EB810194FBF0F78B6894FBF0F1D8
:103A600000FB114101EB410100FB174002EB81011A
:103A700000EB4000496852F820000A4601461E4803
:103A800001F0BAFD621C20A101A802F0ABFC01A864
:103A9000FCF70BFC0246286801A983682846984772
:103AA0000BA8022150F82400FDF7F0FA09281BD0DA
:103AB000286806221AA1836828469847641CB442E5
:103AC000BEDB00231A4619460B4801F095FD286815
:103AD000052215A1836828469847FDF72BFB09A806
:103AE00001F089FD13B0F0BD2868032210A183689E
:103AF00028469847E2E7000070000020407D00085B
:103B0000626F6F740000000065726173696E6720F8
:103B1000736563746F722025642E2E2E00000000E2
:103B20004552524F520A0000444F4E450A000000D1
:103B30004F4B0A00014600200A5C002A03D0401CBB
:103B40000428F9DB042070470068704770B588B01E
:103B500003460846FFF7F8FF1C68182505EB8404A8
:103B600003EB8404646860400490081DFFF7ECFFD9
:103B70001C68192505EB840403EB84046468604029
:103B8000059001F10800FFF7DFFF1C681A2505EB1F
:103B9000840403EB840464686040069001F10C0027
:103BA000FFF7D2FF19681B2404EB810403EB8404A4
:103BB000646860400790481D03EB001303F58273AF
:103BC000FE4806297ED9079D049CC5F30725E4B26B
:103BD00000EB850550F82440D5F80054059E6C4054
:103BE000069D360EC5F3074500EB850500EB8606FE
:103BF000D5F80058D6F8006C75406C401D686C40D4
:103C00000094049D059CC5F30725E4B200EB8505EF
:103C100050F82440D5F80054069E6C40079D360E9F
:103C2000C5F3074500EB850500EB8606D5F800587F
:103C3000D6F8006C75406C405D686C400194059D41
:103C4000069CC5F30725E4B200EB850550F8244037
:103C5000D5F80054079E6C40049D360EC5F3074509
:103C600000EB850500EB8606D5F80058D6F8006C09
:103C700075406C409D686C400294069D079CC5F39E
:103C80000725E4B200EB850550F82440D5F8005430
:103C9000049E6C40059D360EC5F3074500EB850577
:103CA00000EB8606D5F80058D6F8006C75406C40DD
:103CB000DD686C400394103B009C039DE4B250F817
:103CC000244000E073E0C5F3072500EB8505019E65
:103CD000D5F80054360E6C40029D00EB8606C5F305
:103CE000074500EB8505D6F8006CD5F800587540FF
:103CF0006C401D686C400494009D019CC5F3072531
:103D0000E4B200EB850550F82440D5F80054029E3B
:103D10006C40039D360EC5F3074500EB850500EBAF
:103D20008606D5F80058D6F8006C75406C405D6882
:103D30006C400594019D029CC5F30725E4B200EB9D
:103D4000850550F82440D5F80054039E6C40009D32
:103D5000360EC5F3074500EB850500EB8606D5F862
:103D60000058D6F8006C75406C409D686C40069415
:103D7000029D039CC5F30725E4B200EB850550F8CE
:103D80002440D5F80054009E6C40019D360EC5F3CA
:103D9000074500EB850500EB8606D5F80058D6F8F8
:103DA000006C75406C40DD686C400794103B042942
:103DB0007ED9079C0499C4F30724C9B200EB84049C
:103DC00050F82110D4F80044059D6140069C2D0E4A
:103DD000C4F3074400EB840400EB8505D4F80048E5
:103DE000D5F8005C6C4061401C6861400091049C07
:103DF0000599C4F30724C9B200EB840450F82110DC
:103E0000D4F80044069D6140079C2D0EC4F307447E
:103E100000EB840400EB8505D4F80048D5F8005C7D
:103E20006C4061405C6861400191059C0699C4F357
:103E30000724C9B200EB840450F82110D4F80044E0
:103E4000079D6140049C2D0EC4F3074400EB8404DD
:103E500000EB8505D4F80048D5F8005C6C40614063
:103E60009C6861400291069C0799C4F30724C9B27B
:103E700000EB840450F82110D4F80044049D614004
:103E8000059C2D0EC4F3074400EB840400EB85056C
:103E9000D4F80048D5F8005C6C406140DC686140B3
:103EA0000391103B0099039CC9B250F8211000E027
:103EB00073E0C4F3072400EB8404019DD4F80044AC
:103EC0002D0E6140029C00EB8505C4F3074400EB16
:103ED0008404D5F8005CD4F800486C4061401C684C
:103EE00061400491009C0199C4F30724C9B200EB1E
:103EF000840450F82110D4F80044029D6140039CD2
:103F00002D0EC4F3074400EB840400EB8505D4F8C0
:103F10000048D5F8005C6C4061405C6861400591E8
:103F2000019C0299C4F30724C9B200EB840450F841
:103F30002110D4F80044039D6140009C2D0EC4F371
:103F4000074400EB840400EB8505D4F80048D5F85D
:103F5000005C6C4061409C6861400691029C039942
:103F6000C4F30724C9B200EB840450F82110D4F83C
:103F70000044009D6140019C2D0EC4F3074400EBFA
:103F8000840400EB8505D4F80048D5F8005C6C404B
:103F90006140DC6861400791103B079C0499C4F3C1
:103FA0000724C9B200EB840450F82110D4F800446F
:103FB0006140069CC4F3074402E00000581D002045
:103FC000059D00EB84042D0E00EB8505D4F8004818
:103FD000D5F8005C6C4061401C6861400091049C15
:103FE0000599C4F30724C9B200EB840450F82110EA
:103FF000D4F80044069D6140079C2D0EC4F307448D
:1040000000EB840400EB8505D4F80048D5F8005C8B
:104010006C4061405C6861400191059C0699C4F365
:104020000724C9B200EB840450F82110D4F80044EE
:10403000079D6140049C2D0EC4F3074400EB8404EB
:1040400000EB8505D4F80048D5F8005C6C40614071
:104050009C6861400291069C0799C4F30724C9B289
:1040600000EB840450F82110D4F80044049D614012
:10407000059C2D0EC4F3074400EB840400EB85057A
:10408000D4F80048D5F8005C6C406140DC686140C1
:104090000391103B039C0099C4F30724C9B200EBC1
:1040A000840450F82110D4F80044019D6140029C22
:1040B0002D0EC4F3074400EB840400EB8505D4F80F
:1040C0000048D5F8005C6C4061401C686140049178
:1040D000009C0199C4F30724C9B200EB840450F892
:1040E0002110D4F80044029D6140039C2D0EC4F3BE
:1040F000074400EB840400EB8505D4F80048D5F8AC
:10410000005C6C4061405C6861400591019C0299D3
:10411000C4F30724C9B200EB840450F82110D4F88A
:104120000044039D6140009C2D0EC4F3074400EB46
:10413000840400EB8505D4F80048D5F8005C6C4099
:1041400061409C6861400691029C0399C4F3072476
:10415000C9B200EB840450F82110D4F80044009D4B
:104160006140019C2D0EC4F3074400EB840400EB76
:104170008505D4F80048D5F8005C6C406140DC68E7
:1041800061400791103B079C0499C4F30724C9B20E
:1041900000EB840450F82110D4F80044059D6140E0
:1041A000069C2D0EC4F3074400EB840400EB850548
:1041B000D4F80048D5F8005C6C4061401C68614050
:1041C0000091049C0599C4F30724C9B200EB840450
:1041D00050F82110D4F80044069D6140079C2D0E34
:1041E000C4F3074400EB840400EB8505D4F80048D1
:1041F000D5F8005C6C4061405C6861400191059CB1
:104200000699C4F30724C9B200EB840450F82110C6
:10421000D4F80044079D6140049C2D0EC4F307446C
:1042200000EB840400EB8505D4F80048D5F8005C69
:104230006C4061409C6861400291069C0799C4F300
:104240000724C9B200EB840450F82110D4F80044CC
:10425000049D6140059C2D0EC4F3074400EB8404CB
:1042600000EB8505D4F80048D5F8005C6C4061404F
:10427000DC6861400391103B039C0099C4F3072460
:10428000C9B200EB840450F82110D4F80044019D19
:104290006140029C2D0EC4F3074400EB840400EB44
:1042A0008505D4F80048D5F8005C6C4061401C6876
:1042B00061400491009C0199C4F30724C9B200EB4A
:1042C000840450F82110D4F80044029D6140039CFE
:1042D0002D0EC4F3074400EB840400EB8505D4F8ED
:1042E0000048D5F8005C6C4061405C686140059115
:1042F000019C0299C4F30724C9B200EB840450F86E
:104300002110D4F80044039D6140009C2D0EC4F39D
:10431000074400EB840400EB8505D4F80048D5F889
:10432000005C6C4061409C6861400691029C03996E
:10433000C4F30724C9B200EB840450F82110D4F868
:104340000044009D6140019C2D0EC4F3074400EB26
:10435000840400EB8505D4F80048D5F8005C6C4077
:104360006140DC6861400791103B079C0499C4F3ED
:104370000724C9B200EB840450F82110D4F800449B
:10438000059D6140069C2D0EC4F3074400EB840498
:1043900000EB8505D4F80048D5F8005C6C4061401E
:1043A0001C6861400091049C0599C4F30724C9B2BC
:1043B00000EB840450F82110D4F80044069D6140BD
:1043C000079C2D0EC4F3074400EB840400EB850525
:1043D000D4F80048D5F8005C6C4061405C686140EE
:1043E0000191059C0699C4F30724C9B200EB84042B
:1043F00050F82110D4F80044079D6140049C2D0E14
:10440000C4F3074400EB840400EB8505D4F80048AE
:10441000D5F8005C6C4061409C6861400291069C4C
:104420000799C4F30724C9B200EB840450F82110A3
:10443000D4F80044049D6140059C2D0EC4F307444C
:1044400000EB840400EB8505D4F80048D5F8005C47
:104450006C406140DC6861400391103B039C009913
:10446000C4F30724C9B200EB840450F82110D4F837
:104470000044019D6140029C2D0EC4F3074400EBF3
:10448000840400EB8505D4F80048D5F8005C6C4046
:1044900061401C6861400491009C0199C4F30724A9
:1044A000C9B200EB840450F82110D4F80044029DF6
:1044B0006140039C2D0EC4F3074400EB840400EB21
:1044C0008505D4F80048D5F8005C6C4061405C6814
:1044D00061400591019C0299C4F30724C9B200EB25
:1044E000840450F82110D4F80044039D6140009CDE
:1044F0002D0EC4F3074400EB840400EB8505D4F8CB
:104500000048D5F8005C6C4061409C6861400691B1
:10451000029C0399C4F30724C9B200EB840450F849
:104520002110D4F80044009D6140019C2D0EC4F37D
:10453000074400EB840400EB8505D4F80048D5F867
:10454000005C6C406140DC6861400791103B079C57
:104550000499C4F30724C9B200EB840450F8211075
:10456000D4F80044059D6140069C2D0EC4F3074419
:1045700000EB840400EB8505D4F80048D5F8005C16
:104580006C4061401C6861400091049C0599C4F333
:104590000724C9B200EB840450F82110D4F8004479
:1045A000069D6140079C2D0EC4F3074400EB840474
:1045B00000EB8505D4F80048D5F8005C6C406140FC
:1045C0005C6861400191059C0699C4F30724C9B257
:1045D00000EB840450F82110D4F80044079D61409A
:1045E000049C2D0EC4F3074400EB840400EB850506
:1045F000D4F80048D5F8005C6C4061409C6861408C
:104600000291069C0799C4F30724C9B200EB840405
:1046100050F82110D4F80044049D6140059C2D0EF3
:10462000C4F3074400EB840400EB8505D4F800488C
:10463000D5F8005C6C406140DC6861400391103B40
:10464000039C0099C4F30724C9B200EB840450F81A
:104650002110D4F80044019D6140029C2D0EC4F34A
:10466000074400EB840400EB8505D4F80048D5F836
:10467000005C6C4061401C6861400491009C0199A1
:10468000C4F30724C9B200EB840450F82110D4F815
:104690000044029D6140039C2D0EC4F3074400EBCF
:1046A000840400EB8505D4F80048D5F8005C6C4024
:1046B00061405C6861400591019C0299C4F3072444
:1046C000C9B200EB840450F82110D4F80044039DD3
:1046D0006140009C2D0EC4F3074400EB840400EB02
:1046E0008505D4F80048D5F8005C6C4061409C68B2
:1046F00061400691029C0399C4F30724C9B200EB00
:10470000840450F82110D4F80044009D6140019CBD
:104710002D0EC4F3074400EB840400EB8505D4F8A8
:104720000048D5F8005C6C406140DC68614007914E
:10473000103B079C0499C4F30724C9B200EB84041E
:1047400050F82110D4F80044059D6140069C2D0EC0
:10475000C4F3074400EB840400EB8505D4F800485B
:10476000D5F8005C6C4061401C6861400091049C7D
:104770000599C4F30724C9B200EB840450F8211052
:10478000D4F80044069D6140079C2D0EC4F30744F5
:1047900000EB840400EB8505D4F80048D5F8005CF4
:1047A0006C4061405C6861400191059C0699C4F3CE
:1047B0000724C9B200EB840450F82110D4F8004457
:1047C000079D6140049C2D0EC4F3074400EB840454
:1047D00000EB8505D4F80048D5F8005C6C406140DA
:1047E0009C6861400291069C0799C4F30724C9B2F2
:1047F00000EB840450F82110D4F80044049D61407B
:10480000059C2D0EC4F3074400EB840400EB8500E7
:10481000D4F80048D0F8000C4440D86861404140CA
:104820000391103B0098039CC1B24548C4F3072490
:1048300000EB840450F82110D4F80044019D61403D
:10484000029C2D0EC4F3074400EB840400EB8505A5
:10485000D4F80048D5F8005C6C4061401C686140A9
:104860000491009D019CC5F30725E4B200EB85058A
:1048700050F82440D5F80054029E6C40039D360E3B
:10488000C5F3074500EB850500EB8606D5F8005813
:10489000D6F8006C75406C405D686C400594019DD5
:1048A000029CC5F30725E4B200EB850550F82440CF
:1048B000D5F80054039E6C40009D360EC5F30745A5
:1048C00000EB850500EB8606D5F80058D6F8006C9D
:1048D00075406C409D686C400694029D039CC5F336
:1048E0000725E4B200EB850550F82440D5F80054C4
:1048F000009E6C40019D360EC5F3074500EB850513
:1049000000EB8600D5F80058D0F8000C4540D86878
:104910006C40444007941046FEF714FA101D0599A8
:10492000FEF710FA02F108000699FEF70BFA079954
:1049300008B002F10C00BDE87040FEF703BA0000B9
:10494000583D00202DE9F84F04460D461646FE4816
:104950000068002801D100F061FC1F36700920605A
:104960002846FFF7F1F86060281DFFF7EDF8A0601A
:1049700005F10800FFF7E8F8E06005F10C00FFF72B
:10498000E3F8844620612068F049052202230326CB
:1049900007274FF004084FF006094FF0010A0428DA
:1049A0000AD005F1140E05F1100CCDF800E0062830
:1049B0005ED008285BD1EAE000204FEA3C25C5F331
:1049C000074B4FEA156EC5F3072501EB8B0B01EB87
:1049D0008E0E01EB8505CCF3072CDBF800B8DEF872
:1049E00000ECD5F8005451F82CC08BEA0E0B85EA88
:1049F0000C058BEA050BD64D55F820508BEA050BBC
:104A000004EB00156D6885EA0B0508EB800C04EBE0
:104A10008C0CCCF804500AEB800C04EB8C0CDCF80A
:104A200004C08CEA050C02EB800504EB8505C5F893
:104A300004C003EB800504EB85056D6885EA0C0571
:104A400009EB800C04EB8C0CCCF8045006EB800CCA
:104A500004EB8C0CDCF804C08CEA050C07EB800539
:104A600004EB8505C5F804C0401C0A28A5D360E105
:104A70006046FFF769F860610098FFF765F8054642
:104A8000A06100204FF0090A4FF00A0B4FF00B0E07
:104A90004FEA352CCCF307484FEA1C69CCF3072CBE
:104AA00001EB8C0CC5F30725DCF800C451F8255048
:104AB00001EB880801EB89098CEA050CA44DD8F8B4
:104AC0000088D9F8009C55F8205088EA090888EA3F
:104AD0000C0888EA050800EB400C04EBCC056D6877
:104AE00085EA08054FF0060808EB4C0804EB880837
:104AF000C8F804504FF0010808EB4C0804EB880894
:104B0000D8F8048088EA050807EB4C0504EB850516
:104B1000C5F8048003EB4C0504EB85056D6885EA58
:104B200008054FF0080808EB4C0804EB8808C8F8A3
:104B3000045006EB4C0804EB8808D8F8048088EA97
:104B400005080AEB4C0504EB8505C5F8048004252F
:104B500005EB4C0504EB8505D5F8049089EA0809B6
:104B60000BEB4C0504EB8505C5F8049002EB4C05F6
:104B700004EB85056D6885EA09050EEB4C0C04EB2A
:104B80008C0CCCF80450401C082881D3D1E060463E
:104B9000FEF7DAFF60610098FEF7D6FFA06105F12D
:104BA0001800FEF7D1FFE06105F11C00FEF7CCFF15
:104BB0000546206200204FF0090A4FF00A0B4FF023
:104BC0000B0E4FEA352CCCF307484FEA1C69CCF3A7
:104BD000072C01EB8C0CC5F30725DCF800C451F859
:104BE000255001EB880801EB89098CEA050C584D2A
:104BF000D8F80088D9F8009C55F8205088EA0908B0
:104C000088EA0C0888EA050804EB40156D6885EA17
:104C100008054FF0080C0CEBC00C04EB8C0CCCF826
:104C200004504FF0010C0CEBC00C04EB8C0CDCF8C6
:104C300004C08CEA050C0AEBC00504EB8505C5F839
:104C400004C003EBC00504EB8505D5F8048088EAB1
:104C50000C080BEBC00504EB8505C5F8048006EBDA
:104C6000C00504EB85056D6885EA08050EEBC00CF0
:104C700004EB8C0CCCF80450C5F3072805F0FF0CAE
:104C800001EB880851F82CC0D8F800848CEA080C95
:104C9000C5F307482D0E01EB880801EB8505D8F810
:104CA0000088D5F8005C88EA0508042505EBC005F6
:104CB00004EB85058CEA080C6D688CEA050C0C2564
:104CC00005EBC00504EB8505C5F804C002EBC00583
:104CD00004EB85056D6885EA0C054FF00D0C0CEBB7
:104CE000C00C04EB8C0CCCF804504FF0060C0CEB11
:104CF000C00C04EB8C0CDCF804C08CEA050C0E250F
:104D000005EBC00504EB8505C5F804C007EBC0053D
:104D100004EB85056D6885EA0C054FF00F0C0CEB74
:104D2000C00C04EB8C0CCCF80450401C0728FFF49A
:104D300048AF6068C4F80401A068C4F80801E068DE
:104D4000C4F80C01206905E064000020582D002003
:104D5000300D0020C4F810010422182734E004EBC1
:104D60008206736803F08030C00900EBC00000EBDE
:104D7000400003F07F3180EA410000F08031C90932
:104D800001EBC10101EB410100F07F3581EA4501F2
:104D900001F08035ED0905EBC50505EB450501F092
:104DA0007F3C85EA4C056B4080EA010C8CEA050CDF
:104DB00059404FEA3141584081EA33618CEA302052
:104DC0004140C6F80411521C206807EB8000904255
:104DD000C5D8BDE8F88F00002DE9F04105460E4624
:104DE0001746012B1ED10024F81707EB907020F016
:104DF000030810E0D5F82804E04203D13059C5F883
:104E00002C0407E0094A315922441044FCF7D4F934
:104E1000FCF702FA241DA045ECDCD5F82804384440
:104E2000C5F828040020BDE8F081000000800008DB
:104E30002DE9F04F85B0044604F11800E168DFF871
:104E40006CA30490801C039000250327DAF800006F
:104E50004FF006084FF0150900290CD001297DD02C
:104E6000022904D0032902D0204600F0A5F9E06809
:104E700005B0BDE8F08FD4E904230026B21A76EB22
:104E8000030118DA016809688847D4E90432181A5E
:104E90008A4110DADAF80000016809688847C44AD4
:104EA000821841F10000C4E90420A06801220168D1
:104EB0008B68C0A198470295A068012201680B6920
:104EC00002A998470128D2D19DF808000128CED127
:104ED000002020616061DAF80000016809688847F5
:104EE0006268851841EBE27611E0DAF800000168AB
:104EF00009688847281A76EB010008DA206804233D
:104F00000022056811462046A847E76005E0A06832
:104F10000168C96988478428E7DBA06884220168A2
:104F20000B690499984794F89B0094F89A1040EA0A
:104F3000012580210398FEF7CBFC627E217ED243BF
:104F4000D2B2914201D1854221D0CDF80090A06823
:104F5000012201688B686946984700E032E02068CA
:104F600002238022056820460399A847D4F820042C
:104F7000411CC4F820140A287FF779AF2068042365
:104F80000022056811462046A847E7606FE7CDF884
:104F90000480A068012201688B6801A998472068F5
:104FA00000238022056820460399A8470125E56073
:104FB000DAF80000016809688847C4E9040184F848
:104FC000245454E7D4E9042600239A1A73EB06010B
:104FD00018DA016809688847D4E90432181A8A4146
:104FE00010DADAF80000016809688847704A80180A
:104FF00041F10001C4E90401A068012201688B6845
:105000006CA198470295A068012201680B6902A96A
:1050100098470128BAD19DF80800012803D002283A
:1050200001D00428B2D100222261626104282AD171
:10503000CDF80090A068012201688B686946984706
:10504000DAF800000168096888476268851841EB52
:10505000E27608E0DAF80000016809688847281A53
:1050600076EB010005DBA0680168C9698847012863
:10507000F0DBA068012201680B69694698479DF83A
:105080000000042811D09DF8080001281FD04FF41B
:10509000806B0BF1040BDAF800000168096888479F
:1050A0006268851841EBE27626E0CDF80080A068C2
:1050B000012201688B68694698470220E0602068F9
:1050C00003230022056811462046A847CFE64FF08B
:1050D000800BDEE7DAF80000016809688847281AC3
:1050E00076EB010008DA20680423002205681146E7
:1050F0002046A847E76005E0A0680168C9698847BD
:105100005845E7DBA0685A4601680B69049998473F
:1051100004EB0B00C17D807D41EA0025ABF1040169
:105120000398FEF7D5FB014694F82424207E8242A2
:1051300006D1627ED243D2B2904201D18D421FD0BD
:10514000CDF80090A068012201688B6869469847F5
:1051500020680223ABF10402056820460399A847A2
:10516000D4F82004411CC4F820140A28AEDD2068BD
:1051700004230022056811462046A847E76076E62A
:10518000CDF80480A068012201688B6801A99847C6
:1051900094F82404401C84F8240420680123ABF113
:1051A0000402056820460399A84760E62C00002009
:1051B00040420F004300000030B5ADF2044D0446FC
:1051C0004FF48065A0682A4601680B6901A99847D9
:1051D0000028F7DA0020E0600548006801680968E7
:1051E0008847C4E904010DF2044D002030BD0000E1
:1051F0002C0000200020704710B5044604482060B1
:10520000A160044860602046FFF7D6FF204610BD2D
:10521000007E000880969800704700002DE9F04F4E
:10522000002001217C4A02F580730BE01154585490
:1052300081EA4104090601D51B2100E000214C4010
:10524000E1B2401CFF28F1D9002058700121734DB4
:1052500045F820100C0601D51B2400E0002484EA48
:105260004101C9B2401C0A28F2D300206C4F07F557
:10527000807C20B1195CC1F1FF01545C00E0002486
:10528000E10941EA4401C9B24C40CD0945EA410176
:10529000C9B24C40CD0945EA4101C9B24C40CD09E3
:1052A00045EA4101C9B24C4084F0630139540CF81D
:1052B0000100401CFF28DCD90020DFF86881FF24B2
:1052C000A8F5005908F5805AA8F5805B395C48F8C4
:1052D000201008EB80054FEA3166C5F800644FEAFC
:1052E0003146C5F800684FEA3126C5F8006C002940
:1052F00008D09D785E5C3544B5FBF4F604FB16558A
:10530000555D01E04FF0000545EA012545EA0145FC
:1053100008D0DE78595C3144B1FBF4F604FB161179
:10532000515C01E04FF0000145EA016149F82010AD
:1053300009EB80054FEA3166C5F800644FEA314653
:10534000C5F800684FEA3121C5F8001C1CF80010B0
:105350004AF820100AEB80054FEA3166C5F8006470
:105360004FEA3146C5F800684FEA3126C5F8006CAF
:10537000002908D09D7B5E5C3544B5FBF4F604FB48
:105380001655555D01E04FF0000509D05E7A13F81F
:1053900001E07644B6FBF4FE04FB1E66965D01E078
:1053A0004FF0000645EA062609D05D7B13F801E0C0
:1053B0007544B5FBF4FE04FB1E55555D01E04FF04E
:1053C000000546EA054508D0DE7A595C3144B1FB58
:1053D000F4F604FB1611515C01E04FF0000145EAC0
:1053E00001614BF820100BEB80054FEA3166C5F8E0
:1053F00000644FEA3146C5F800684FEA3121C5F82C
:10540000001C00F10100FF287FF660AF0649012073
:105410000860BDE8F08F000030090020300D00204A
:10542000300B0020582D0020640000202DE9F843A7
:10543000054689469046FEF715FA224F78680028FF
:1054400002DA284600F072F800241F4E07E006EB4F
:10545000C40104224846FAF73CFF58B3641C78683C
:105460008442F4DB7868686006EBC000001D2860A9
:105470007868042206EBC0004946FAF70AFF78680C
:1054800006EBC000C0F804804846FEF753FB014617
:10549000002000907868042306EBC002121D4846E5
:1054A000FDF7FAFB7868401C78602846BDE8F843B1
:1054B00000F00CB806EBC400001D28606C60BDE86D
:1054C000F883000040000020300100202DE9FC415D
:1054D0000446154D0027606805EBC000FEF72AFB67
:1054E000014600976068042305EBC00001AAFDF7A0
:1054F000D3FB0646606805EBC00041680198FBF7E6
:10550000A5F801D1002E0DDA606805EBC000FEF7AA
:1055100011FB014600976068042305EBC000021DE3
:10552000FDF710FDBDE8FC81300100202DE9F047BA
:105530008AB081460020FDF735FB294F4FF0000A65
:10554000C7F804A04FF0FF35DFF89880CDF818A019
:10555000CDF81CA0CDF820A0CDF824A0CDF808A04F
:10556000CDF80CA0CDF810A0CDF814A0CDF804A073
:1055700001AB02AA01A906A80095FDF7D9FA0546D4
:105580000026002407E008EBC401042206A8FAF76D
:10559000A0FE28B1641C78688442F4DBD6B901E02F
:1055A0000126FBE77868C9F8040008EBC000001D7D
:1055B000C9F80000786808EBC000C0F800A006A990
:1055C000019AFAF766FE7868029908EBC00251600A
:1055D000401C7860002DB9DC0AB0BDE8F0870000FF
:1055E000400000203001002010B504462046FFF79F
:1055F0001DFF204610BD70472DE9F04108461546B5
:105600001F464FF07E5632460021FEF7ADF90446A4
:10561000324600212846FEF7A7F90546324600210A
:105620003846FEF7A1F9064621462046FAF78AFFDA
:10563000804629462846FAF785FF07463146304618
:10564000FAF780FF0546114C40462146FAF77AFFEB
:10565000FAF7E7FF0E4E01463046FDF765F92146A1
:105660003846FAF76FFFFAF7DCFF01463046FDF7E0
:1056700057F921462846FAF765FFFAF7D2FF0146A7
:105680003046FDF74FF90020BDE8F08100A00C473F
:105690000004004070B58AB00546324828600024F6
:1056A0000894099401210220FBF72EFF0121062016
:1056B000FBF738FF3220089002208DF824008DF887
:1056C00026408DF82500284E08A93046FBF772FECB
:1056D000022201213046FBF7AAFE022204213046B5
:1056E000FBF7A5FE022205213046FBF7A0FE48F697
:1056F0009F4006900620ADF81400ADF81C40ADF8B0
:1057000016401A4E05A93046FDF710F90121304622
:10571000FDF736F801213046FDF726F8082130461E
:10572000FDF76EF808213046FDF7B4F80821304641
:10573000FDF7ECF86020ADF800000120ADF80200A4
:10574000ADF80C40029469463046FDF725F86946ED
:105750003046FDF75BF869463046FDF7A5F80AB01C
:10576000284670BD0C7E0008000402400004004082
:105770007047000010B5044608460549FAF7E2FEF6
:105780000146206882682046BDE8104010470000AE
:1057900000007A447CB5044608462C49884232DB36
:1057A000FAF7CAFE06462A498E4238DA4FF0E0255B
:1057B000A96928480468601A0190274827490068A9
:1057C000B0FBF1F0FAF7F9FE3146FAF7BBFE0646F8
:1057D0000198FAF7E9FE3146FAF75CFEFAF708FF9E
:1057E00090FBF4F104FB11000090DDE90010884209
:1057F0000ADCA869211A0098814204D2A86901999B
:10580000201A8842F5D27CBDA8690199201A8842E5
:10581000FAD2A869211A00988142F5D37CBD20688C
:10582000016820468847CDE90001206801682046CC
:105830008847DDE90032C01A61EB0201FAF7C2FEC7
:105840003146FAF703FFF0D37CBD0000A470BD3EE3
:1058500000A00C46300000200000002040420F0055
:1058600030B587B04FF0E022906906901C48D0E92F
:105870000213CDE9041391690391BFF34F8FBFF376
:105880006F8FD0E90212CDE9001200680699411A23
:1058900006910399401A0390069C039A002311492C
:1058A0001148A2420CDA0968B1FBF0F20398DDE975
:1058B0000051C41728186141FAF784FC07B030BDC5
:1058C00009681D46B1FBF0F4DDE90510049BC21721
:1058D0001818514122462B46FAF774FCEEE70000F7
:1058E000300000200000002040420F0070B5054647
:1058F0000F4828600F4864210068B0FBF1F10E48A2
:105900000160491E4FF0FF36B1F1807F0AD24FF09F
:10591000E02461610F213046FDF7ECFE0020A0611C
:105920000720206100213046FDF7E4FE284670BDC7
:10593000187E0008000000203000002070470000A2
:105940002DE9F04190B004464E49606802270126D7
:105950004FF00068884213D101218805FBF7D4FD80
:10596000454646204849E1608DF800008DF80170F9
:105970008DF802608DF803606846FBF77FFD4EE00E
:1059800042494FF40012884213D101211046FBF71F
:10599000BBFD454611203E49E1608DF800008DF8C1
:1059A00001708DF802708DF803606846FBF766FDA4
:1059B00035E03849884215D101211046FBF7A4FD96
:1059C00045460E2032494839E1608DF800008DF8D7
:1059D000017003208DF802008DF803606846FBF724
:1059E0004DFD1CE02C49884215D101211046FBF7E2
:1059F0008BFD45460F2026493039E1608DF80000C7
:105A00008DF8017004208DF802008DF8036068465F
:105A1000FBF734FD03E02149884200D020493C21B6
:105A200001A8FAF719FCE068FBF748FA01956068ED
:105A3000001D029004F23140039040200490C820E1
:105A40000590002006904FF480610791089009901E
:105A50000A904FF440310B910C900D960E900F90E0
:105A600001A9E068FBF7E6FA01221021E068FBF7E4
:105A7000C7FA012280216068FCF7CAFF10B0BDE8B8
:105A8000F081000000100140B86402400044004072
:105A9000A060024000480040004C00400050004020
:105AA000001401401FB50446A16000910020ADF82C
:105AB0000400ADF80600ADF80800ADF80C000C20AD
:105AC000ADF80A0069466068FCF7CEFF0121606806
:105AD000FCF792FF012240F225516068FCF7A9FF14
